{"project/contracts/GoldTraderNFT.sol":{"GoldTraderNFT":{"abi":[{"inputs":[{"internalType":"address","name":"initialOwner","type":"address"}],"stateMutability":"nonpayable","type":"constructor"},{"inputs":[{"internalType":"address","name":"sender","type":"address"},{"internalType":"uint256","name":"tokenId","type":"uint256"},{"internalType":"address","name":"owner","type":"address"}],"name":"ERC721IncorrectOwner","type":"error"},{"inputs":[{"internalType":"address","name":"operator","type":"address"},{"internalType":"uint256","name":"tokenId","type":"uint256"}],"name":"ERC721InsufficientApproval","type":"error"},{"inputs":[{"internalType":"address","name":"approver","type":"address"}],"name":"ERC721InvalidApprover","type":"error"},{"inputs":[{"internalType":"address","name":"operator","type":"address"}],"name":"ERC721InvalidOperator","type":"error"},{"inputs":[{"internalType":"address","name":"owner","type":"address"}],"name":"ERC721InvalidOwner","type":"error"},{"inputs":[{"internalType":"address","name":"receiver","type":"address"}],"name":"ERC721InvalidReceiver","type":"error"},{"inputs":[{"internalType":"address","name":"sender","type":"address"}],"name":"ERC721InvalidSender","type":"error"},{"inputs":[{"internalType":"uint256","name":"tokenId","type":"uint256"}],"name":"ERC721NonexistentToken","type":"error"},{"inputs":[{"internalType":"address","name":"owner","type":"address"}],"name":"OwnableInvalidOwner","type":"error"},{"inputs":[{"internalType":"address","name":"account","type":"address"}],"name":"OwnableUnauthorizedAccount","type":"error"},{"anonymous":false,"inputs":[{"indexed":true,"internalType":"address","name":"owner","type":"address"},{"indexed":true,"internalType":"address","name":"approved","type":"address"},{"indexed":true,"internalType":"uint256","name":"tokenId","type":"uint256"}],"name":"Approval","type":"event"},{"anonymous":false,"inputs":[{"indexed":true,"internalType":"address","name":"owner","type":"address"},{"indexed":true,"internalType":"address","name":"operator","type":"address"},{"indexed":false,"internalType":"bool","name":"approved","type":"bool"}],"name":"ApprovalForAll","type":"event"},{"anonymous":false,"inputs":[{"indexed":true,"internalType":"address","name":"minter","type":"address"},{"indexed":true,"internalType":"uint256","name":"tokenId","type":"uint256"}],"name":"Minted","type":"event"},{"anonymous":false,"inputs":[{"indexed":true,"internalType":"address","name":"previousOwner","type":"address"},{"indexed":true,"internalType":"address","name":"newOwner","type":"address"}],"name":"OwnershipTransferred","type":"event"},{"anonymous":false,"inputs":[{"indexed":true,"internalType":"address","name":"from","type":"address"},{"indexed":true,"internalType":"address","name":"to","type":"address"},{"indexed":true,"internalType":"uint256","name":"tokenId","type":"uint256"}],"name":"Transfer","type":"event"},{"inputs":[{"internalType":"address","name":"to","type":"address"},{"internalType":"uint256","name":"tokenId","type":"uint256"}],"name":"approve","outputs":[],"stateMutability":"nonpayable","type":"function"},{"inputs":[{"internalType":"address","name":"owner","type":"address"}],"name":"balanceOf","outputs":[{"internalType":"uint256","name":"","type":"uint256"}],"stateMutability":"view","type":"function"},{"inputs":[{"internalType":"uint256","name":"tokenId","type":"uint256"}],"name":"getApproved","outputs":[{"internalType":"address","name":"","type":"address"}],"stateMutability":"view","type":"function"},{"inputs":[{"internalType":"address","name":"","type":"address"}],"name":"hasMinted","outputs":[{"internalType":"bool","name":"","type":"bool"}],"stateMutability":"view","type":"function"},{"inputs":[{"internalType":"address","name":"owner","type":"address"},{"internalType":"address","name":"operator","type":"address"}],"name":"isApprovedForAll","outputs":[{"internalType":"bool","name":"","type":"bool"}],"stateMutability":"view","type":"function"},{"inputs":[],"name":"mint","outputs":[],"stateMutability":"nonpayable","type":"function"},{"inputs":[],"name":"name","outputs":[{"internalType":"string","name":"","type":"string"}],"stateMutability":"view","type":"function"},{"inputs":[],"name":"owner","outputs":[{"internalType":"address","name":"","type":"address"}],"stateMutability":"view","type":"function"},{"inputs":[{"internalType":"uint256","name":"tokenId","type":"uint256"}],"name":"ownerOf","outputs":[{"internalType":"address","name":"","type":"address"}],"stateMutability":"view","type":"function"},{"inputs":[],"name":"renounceOwnership","outputs":[],"stateMutability":"nonpayable","type":"function"},{"inputs":[{"internalType":"address","name":"from","type":"address"},{"internalType":"address","name":"to","type":"address"},{"internalType":"uint256","name":"tokenId","type":"uint256"}],"name":"safeTransferFrom","outputs":[],"stateMutability":"nonpayable","type":"function"},{"inputs":[{"internalType":"address","name":"from","type":"address"},{"internalType":"address","name":"to","type":"address"},{"internalType":"uint256","name":"tokenId","type":"uint256"},{"internalType":"bytes","name":"data","type":"bytes"}],"name":"safeTransferFrom","outputs":[],"stateMutability":"nonpayable","type":"function"},{"inputs":[{"internalType":"address","name":"operator","type":"address"},{"internalType":"bool","name":"approved","type":"bool"}],"name":"setApprovalForAll","outputs":[],"stateMutability":"nonpayable","type":"function"},{"inputs":[{"internalType":"bytes4","name":"interfaceId","type":"bytes4"}],"name":"supportsInterface","outputs":[{"internalType":"bool","name":"","type":"bool"}],"stateMutability":"view","type":"function"},{"inputs":[],"name":"symbol","outputs":[{"internalType":"string","name":"","type":"string"}],"stateMutability":"view","type":"function"},{"inputs":[{"internalType":"uint256","name":"","type":"uint256"}],"name":"tokenMinter","outputs":[{"internalType":"address","name":"","type":"address"}],"stateMutability":"view","type":"function"},{"inputs":[{"internalType":"uint256","name":"tokenId","type":"uint256"}],"name":"tokenURI","outputs":[{"internalType":"string","name":"","type":"string"}],"stateMutability":"view","type":"function"},{"inputs":[],"name":"totalSupply","outputs":[{"internalType":"uint256","name":"","type":"uint256"}],"stateMutability":"view","type":"function"},{"inputs":[{"internalType":"address","name":"from","type":"address"},{"internalType":"address","name":"to","type":"address"},{"internalType":"uint256","name":"tokenId","type":"uint256"}],"name":"transferFrom","outputs":[],"stateMutability":"nonpayable","type":"function"},{"inputs":[{"internalType":"address","name":"newOwner","type":"address"}],"name":"transferOwnership","outputs":[],"stateMutability":"nonpayable","type":"function"}],"evm":{"bytecode":{"linkReferences":{},"object":"6080346200049c57601f90601f196001600160401b0362002134388190038581018416850183811186821017620003e8578592829160405283396020948591810103126200049c57516001600160a01b0380821694909290918590036200049c576200006a620004a0565b93601385527f4261736541676720476f6c642054726164657200000000000000000000000000838601526200009e620004a0565b946009865268109051d1cb51d3d31160ba1b84870152805190838211620003e8578190620000cd5f54620004c0565b8a81116200046c575b5085908a831160011462000408575f92620003fc575b50508160011b915f199060031b1c1916175f555b8451918211620003e85781906001956200011b8754620004c0565b898111620003ad575b5084918984116001146200034c57505f9262000340575b50505f19600383901b1c191690841b1783555b83156200032857602160f81b946002947f656163686564203135303020706f696e74732e20456c69746520747261646572936006548260018060a01b0319821617600655167f8be0079c531659141344cd1fd0a4f28419497f9722a3daafe3b4186f6b6457e05f80a3620001c4600a54620004c0565b81811162000306575b507f476f6c6420547261646572000000000000000000000000000000000000000016600a55600b546200020090620004c0565b818111620002e4575b50600c6506666643730360d41b01600b55600c546200022890620004c0565b818111620002c2575b50600863f09fa58760e01b01600c55600d546200024e90620004c0565b8181116200029d575b50506083600d55600d5f525f20917f4177617264656420746f204261736541676720747261646572732077686f207283558201550155604051611c209081620005148239f35b6003620002ba92600d5f52845f20920160051c82019101620004fb565b5f8062000257565b620002dd90600c5f5282845f20910160051c810190620004fb565b5f62000231565b620002ff90600b5f5282845f20910160051c810190620004fb565b5f62000209565b6200032190600a5f5282845f20910160051c810190620004fb565b5f620001cd565b604051631e4fbdf760e01b81525f6004820152602490fd5b015190505f806200013b565b87949291921691845f52855f20925f5b878282106200039657505084116200037d575b505050811b0183556200014e565b01515f1960f88460031b161c191690555f80806200036f565b8385015186558a979095019493840193016200035c565b620003d790885f52865f208b80870160051c820192898810620003de575b0160051c0190620004fb565b5f62000124565b92508192620003cb565b634e487b7160e01b5f52604160045260245ffd5b015190505f80620000ec565b5f808052878120938616905b88828210620004555750509084600195949392106200043c575b505050811b015f5562000100565b01515f1960f88460031b161c191690555f80806200042e565b600185968293968601518155019501930162000414565b62000495905f8052875f208c80860160051c8201928a8710620003de570160051c0190620004fb565b5f620000d6565b5f80fd5b60408051919082016001600160401b03811183821017620003e857604052565b90600182811c92168015620004f0575b6020831014620004dc57565b634e487b7160e01b5f52602260045260245ffd5b91607f1691620004d0565b81811062000507575050565b5f8155600101620004fb56fe608060409080825260049081361015610016575f80fd5b5f3560e01c90816301ffc9a71461132e5750806306fdde0314611281578063081812fc14611248578063095ea7b31461116c5780631249c58b14610e8d57806318160ddd14610e6f57806323b872dd14610e5857806338e21cce14610e1c57806342842e0e14610dee5780636352211e14610dbe57806370a0823114610d69578063715018a614610d0e5780637c57d94714610cde5780638da5cb5b14610cb657806395d89b4114610be2578063a22cb46514610b2a578063b88d4fde14610a97578063c87b56dd146101d6578063e985e9c5146101885763f2fde38b146100fc575f80fd5b34610184576020366003190112610184576101156113de565b9061011e6117ba565b6001600160a01b0391821692831561016e575050600654826001600160601b0360a01b821617600655167f8be0079c531659141344cd1fd0a4f28419497f9722a3daafe3b4186f6b6457e05f80a3005b905f6024925191631e4fbdf760e01b8352820152fd5b5f80fd5b82346101845780600319360112610184576020906101a46113de565b6101ac6113f4565b9060018060a01b038091165f5260058452825f2091165f52825260ff815f20541690519015158152f35b50346101845760209081600319360112610184578035906101f682611780565b5061020082611930565b908451927f3c73766720786d6c6e733d22687474703a2f2f7777772e77332e6f72672f3230858501527f30302f737667222076696577426f783d223020302034303020343030223e000086850152651e3232b3399f60d11b605e8501527f3c6c696e6561724772616469656e742069643d226267222078313d223025222060648501527f79313d223025222078323d2231303025222079323d2231303025223e000000006084850152837f3c73746f70206f66667365743d22302522207374796c653d2273746f702d636f8060a08301526d3637b91d119832183218b091179f60911b60c08301527f3c73746f70206f66667365743d223130302522207374796c653d2273746f702d948560ce8401526f31b7b637b91d1198b098b0999a91179f60811b60ee840152701e17b634b732b0b923b930b234b2b73a1f60791b8060fe8501527f3c6c696e6561724772616469656e742069643d2274696572222078313d22302561010f8501527f222079313d223025222078323d2231303025222079323d2231303025223e000061012f85015261014d9283850152633637b91d60e11b61016d8501526103b5610171850161167b565b6211179f60e91b815260038101979097526f31b7b637b91d119bb19ab1b33191179f60811b60238801526033870152661e17b232b3399f60c91b60448701527f3c726563742077696474683d2234303022206865696768743d22343030222066604b8701527f696c6c3d2275726c2823626729222072783d223234222f3e0000000000000000606b8701527f3c7265637420783d2232302220793d223230222077696474683d22333630222060838701527f6865696768743d22333630222066696c6c3d226e6f6e6522207374726f6b653d60a38701527f2275726c2823746965722922207374726f6b652d77696474683d22322220727860c3870152741e91189b111037b830b1b4ba3c9e9118171b11179f60591b60e38701527f3c7465787420783d223230302220793d223136302220666f6e742d73697a653d60f88701527f2238302220746578742d616e63686f723d226d6964646c652220646f6d696e6161011887015274373a16b130b9b2b634b7329e9136b4b2323632911f60591b610138870152600c54955f929061054c886114ad565b906001986001811690815f14610a7c5750600114610a1d575b5050506106fb60c8661e17ba32bc3a1f60c91b938481527f3c7465787420783d223230302220793d223233302220666f6e742d66616d696c600782015261062160807f793d22417269616c2c73616e732d73657269662220666f6e742d73697a653d22928360278201527f32322220666f6e742d7765696768743d22626f6c64222066696c6c3d2277686960478201527f74652220746578742d616e63686f723d226d6964646c65223e00000000000000606782015201611707565b908582527f3c7465787420783d223230302220793d223236322220666f6e742d66616d696c600783015260278201527f3133222066696c6c3d22233838383861612220746578742d616e63686f723d2260478201527f6d6964646c65223e42617365416767205472616465723c2f746578743e00000060678201527f3c7465787420783d223230302220793d223334302220666f6e742d66616d696c60848201527f793d226d6f6e6f73706163652220666f6e742d73697a653d223131222066696c60a4820152636c3d222360e01b60c48201520161167b565b7f2220746578742d616e63686f723d226d6964646c6522206f7061636974793d22815265302e37223e2360d01b8982015261073f825180938b602685019101611398565b01906026820152651e17b9bb339f60d11b602d8201520361076b6033601392601381018852018661146f565b61078661078061077a84611930565b96611a97565b92611930565b93875195683d913730b6b2911d1160b91b888801526107a760298801611707565b61202360f01b81526107c2825180938b600285019101611398565b0161088b60f21b948560028301526e113232b9b1b934b83a34b7b7111d1160891b908201525f92600d54926107f6846114ad565b93600181169081156109f05750600114610990575b505050508461092c946108b7605386610927968661098c9b99602798527f22696d616765223a22646174613a696d6167652f7376672b786d6c3b626173656002820152620d8d0b60ea1b602282015261086e8d8351938491602585019101611398565b019060258201526d2261747472696275746573223a5b60901b868201527f7b2274726169745f74797065223a2254696572222c2276616c7565223a220000603582015201611707565b62089f4b60ea1b81527f7b2274726169745f74797065223a22546f6b656e204944222c2276616c7565226003820152601d60f91b6023820152610903825180938b602485019101611398565b01607d60f81b6024820152615d7d60f01b602582015203600781018452018261146f565b611a97565b9261097d603d825180967f646174613a6170706c69636174696f6e2f6a736f6e3b6261736536342c0000008783015261096d81518092898686019101611398565b810103601d81018752018561146f565b519282849384528301906113b9565b0390f35b9091929350600d5f527fd7b6990105719101dabeb77144f2a3385c8033acd3af97e9423a695e81ad1eb5895f915b8683106109dc57505050509101601301905084846108b7605361080b565b80548684018601529101908a9083016109be565b60ff191660138581019190915285151590950290930190930193508792508691506108b79050605361080b565b9091929350600c5f527fdf6966c971051c3d54ec59162606531493a51404a002842f56009d7e5cf4a8c78a895f925b858410610a6257505050500101905f8080610565565b80548585018801528c985092909101918c918b9101610a4c565b60ff19168483015250811515909102010191505f8080610565565b50903461018457608036600319011261018457610ab26113de565b610aba6113f4565b604435916064359467ffffffffffffffff8611610184573660238701121561018457850135610af4610aeb82611491565b9551958661146f565b8085523660248288010111610184576020815f926024610b2899018389013786010152610b228383836114e5565b336117e6565b005b509034610184578060031936011261018457610b446113de565b9060243591821515809303610184573315610bcc576001600160a01b0316928315610bb75750335f526005602052805f20835f52602052805f2060ff1981541660ff8416179055519081527f17307eab39ab6107e8899845ad3d59bd9653f200f220920489ca2b5937696c3160203392a3005b836024925191630b61174360e31b8352820152fd5b815163a9fbf51f60e01b81525f81860152602490fd5b8234610184575f366003190112610184578051905f908260019260015493610c09856114ad565b90818452602095866001821691825f14610c94575050600114610c39575b505061098c929161097d91038561146f565b9085925060015f527fb10e2d527612073b26eecdfd717e6a320cf44b4afac2b0732d9fcbe2b7fa0cf6915f925b828410610c7c575050508201018161097d610c27565b8054848a018601528895508794909301928101610c66565b60ff19168682015292151560051b8501909201925083915061097d9050610c27565b8234610184575f3660031901126101845760065490516001600160a01b039091168152602090f35b50903461018457602036600319011261018457602091355f526009825260018060a01b03815f2054169051908152f35b34610184575f36600319011261018457610d266117ba565b600680546001600160a01b031981169091555f906001600160a01b03167f8be0079c531659141344cd1fd0a4f28419497f9722a3daafe3b4186f6b6457e08280a3005b509034610184576020366003190112610184576001600160a01b03610d8c6113de565b168015610da857602092505f5260038252805f20549051908152f35b81516322718ad960e21b81525f81850152602490fd5b50903461018457602036600319011261018457610ddd60209235611780565b90516001600160a01b039091168152f35b823461018457610b2890610e013661140a565b91925192610e0e8461143f565b5f8452610b228383836114e5565b8234610184576020366003190112610184576020906001600160a01b03610e416113de565b165f526008825260ff815f20541690519015158152f35b3461018457610b28610e693661140a565b916114e5565b8234610184575f366003190112610184576020906007549051908152f35b5034610184575f36600319011261018457335f526020906008825260ff835f20541661113a57600754925f198085146111275760018501600755335f5260088452815f20600160ff19825416179055845f5260098452815f20906001600160601b0360a01b913383825416179055825191610f078361143f565b5f83523315611111575f87815260028752849020546001600160a01b031680151592889290846110e0575b50335f5260038852855f2060018154019055825f5260028852855f2090339082541617905533907fddf252ad1be2c89b69c2b068fc378daa952ba7f163c4a11628f55a4df523b3ef5f80a46110ca57333b610fb0575b84337f30385c845b448a36257a6a1716e6ad2e1bc2cbe333cde1e69fe849ad6511adfe5f80a3005b819293949151858180610fea630a85bd0160e11b95868352338a8401525f60248401528760448401526080606484015260848301906113b9565b03815f335af15f918161108a575b50611054575050503d5f1461104c573d9261101284611491565b9361101f8351958661146f565b84523d5f8286013e5b83519384611046578251633250574960e11b81523381860152602490fd5b84925001fd5b606092611028565b9194506001600160e01b0319909116036110735750505f808080610f88565b602492505190633250574960e11b82523390820152fd5b9091508681813d83116110c3575b6110a2818361146f565b8101031261018457516001600160e01b03198116810361018457905f610ff8565b503d611098565b81516339e3563760e11b81525f81850152602490fd5b5f84815260046020526040902080546001600160a01b0319169055825f5260038952865f209081540190555f610f32565b8351633250574960e11b81525f81870152602490fd5b601183634e487b7160e01b5f525260245ffd5b915162461bcd60e51b815291820152600e60248201526d105b1c9958591e481b5a5b9d195960921b6044820152606490fd5b5090346101845780600319360112610184576111866113de565b9160243561119381611780565b33151580611235575b8061120e575b6111f8576001600160a01b039485169482918691167f8c5be1e5ebec7d5bd14f71427d1e84f3dd0314c0f7b2291e5b200ac8c7c3b9255f80a45f526020525f20906001600160601b0360a01b8254161790555f80f35b835163a9fbf51f60e01b81523381850152602490fd5b5060018060a01b0381165f526005602052835f20335f5260205260ff845f205416156111a2565b506001600160a01b03811633141561119c565b50903461018457602036600319011261018457816020923561126981611780565b505f52825260018060a01b03815f2054169051908152f35b8234610184575f366003190112610184578051905f90825f54926112a4846114ad565b808352602094600190866001821691825f14610c945750506001146112d557505061098c929161097d91038561146f565b5f80805286935091907f290decd9548b62a8d60345a988386fc84ba6bc95484008f6362f93160ef3e5635b828410611316575050508201018161097d610c27565b8054848a018601528895508794909301928101611300565b823461018457602036600319011261018457359063ffffffff60e01b8216809203610184576020916380ac58cd60e01b8114908115611387575b8115611376575b5015158152f35b6301ffc9a760e01b1490508361136f565b635b5e139f60e01b81149150611368565b5f5b8381106113a95750505f910152565b818101518382015260200161139a565b906020916113d281518092818552858086019101611398565b601f01601f1916010190565b600435906001600160a01b038216820361018457565b602435906001600160a01b038216820361018457565b6060906003190112610184576001600160a01b0390600435828116810361018457916024359081168103610184579060443590565b6020810190811067ffffffffffffffff82111761145b57604052565b634e487b7160e01b5f52604160045260245ffd5b90601f8019910116810190811067ffffffffffffffff82111761145b57604052565b67ffffffffffffffff811161145b57601f01601f191660200190565b90600182811c921680156114db575b60208310146114c757565b634e487b7160e01b5f52602260045260245ffd5b91607f16916114bc565b6001600160a01b03918216929091831561166357815f52602092600284528260409583875f20541695331515806115d1575b50600290876115a0575b825f5260038152885f2060018154019055835f5252865f20816001600160601b0360a01b825416179055857fddf252ad1be2c89b69c2b068fc378daa952ba7f163c4a11628f55a4df523b3ef5f80a4169283830361157f5750505050565b6064945051926364283d7b60e01b8452600484015260248301526044820152fd5b5f84815260046020526040812080546001600160a01b03191690558881526003825289902080545f19019055611521565b9192509080611622575b156115e9579084915f611517565b868587611606576024915190637e27328960e01b82526004820152fd5b604491519063177e802f60e01b82523360048301526024820152fd5b503386148015611647575b806115db5750845f52600481523384885f205416146115db565b50855f5260058152865f20335f52815260ff875f20541661162d565b604051633250574960e11b81525f6004820152602490fd5b600b545f929161168a826114ad565b916001908181169081156116f457506001146116a557505050565b9091929350600b5f527f0175b7a638427703f0dbe7bb9bbf987a2551717b34e79f33b5b1008d1fa01db9905f915b8483106116e1575050500190565b81816020925485870152019201916116d3565b60ff191683525050811515909102019150565b600a545f9291611716826114ad565b916001908181169081156116f4575060011461173157505050565b9091929350600a5f527fc65a7bb8d6351c1cf70c95a316cc6a92839c986682d98bc35f958f4883f9d2a8905f915b84831061176d575050500190565b818160209254858701520192019161175f565b5f818152600260205260409020546001600160a01b03169081156117a2575090565b60249060405190637e27328960e01b82526004820152fd5b6006546001600160a01b031633036117ce57565b60405163118cdaa760e01b8152336004820152602490fd5b9293909193843b6117f9575b5050505050565b604051630a85bd0160e11b8082526001600160a01b03958616600483015293851660248201526044810191909152608060648201526020959490931693929085908290819061184c9060848301906113b9565b03815f885af15f91816118f0575b506118b9575050503d5f146118b1573d9161187483611491565b92611882604051948561146f565b83523d5f8285013e5b825192836118ac57604051633250574960e11b815260048101849052602490fd5b019050fd5b60609161188b565b9193506001600160e01b0319909116036118d857505f808080806117f2565b60249060405190633250574960e11b82526004820152fd5b9091508581813d8311611929575b611908818361146f565b8101031261018457516001600160e01b03198116810361018457905f61185a565b503d6118fe565b805f917a184f03e93ff9f4daa797ed6e38ed64bf6a1f01000000000000000080821015611a89575b506d04ee2d6d415b85acef810000000080831015611a7a575b50662386f26fc1000080831015611a6b575b506305f5e10080831015611a5c575b5061271080831015611a4d575b506064821015611a3d575b600a80921015611a33575b60019081602160018601956119c987611491565b966119d7604051988961146f565b8088526119e6601f1991611491565b01366020890137860101905b6119fe575b5050505090565b5f19019083906f181899199a1a9b1b9c1cb0b131b232b360811b8282061a835304918215611a2e579190826119f2565b6119f7565b91600101916119b5565b91906064600291049101916119aa565b6004919392049101915f61199f565b6008919392049101915f611992565b6010919392049101915f611983565b6020919392049101915f611971565b60409350810491505f611958565b805115611bd7578051916002808401809411611bc357600393849004600281901b91906001600160fe1b03811603611bc35793604051937f4142434445464748494a4b4c4d4e4f505152535455565758595a616263646566601f52603f917f6768696a6b6c6d6e6f707172737475767778797a303132333435363738392b2f603f5260208601928291835184019160208301998a51945f8c525b848110611b8757505050505090600391602095969752510680600114611b7257600214611b65575b50808452830101604052565b603d905f1901535f611b59565b50603d90815f1982015360011901535f611b59565b836004919c95989c019b838d51818160121c165183538181600c1c16516001840153818160061c1651858401531651858201530196939a611b31565b634e487b7160e01b5f52601160045260245ffd5b50604051611be48161143f565b5f81529056fea264697066735822122057fa4b57b7088fe123181afc1625f41af28e6024ba7d87eb084621d852c9da0664736f6c63430008180033","opcodes":"PUSH1 0x80 CALLVALUE PUSH3 0x49C JUMPI PUSH1 0x1F SWAP1 PUSH1 0x1F NOT PUSH1 0x1 PUSH1 0x1 PUSH1 0x40 SHL SUB PUSH3 0x2134 CODESIZE DUP2 SWAP1 SUB DUP6 DUP2 ADD DUP5 AND DUP6 ADD DUP4 DUP2 GT DUP7 DUP3 LT OR PUSH3 0x3E8 JUMPI DUP6 SWAP3 DUP3 SWAP2 PUSH1 0x40 MSTORE DUP4 CODECOPY PUSH1 0x20 SWAP5 DUP6 SWAP2 DUP2 ADD SUB SLT PUSH3 0x49C JUMPI MLOAD PUSH1 0x1 PUSH1 0x1 PUSH1 0xA0 SHL SUB DUP1 DUP3 AND SWAP5 SWAP1 SWAP3 SWAP1 SWAP2 DUP6 SWAP1 SUB PUSH3 0x49C JUMPI PUSH3 0x6A PUSH3 0x4A0 JUMP JUMPDEST SWAP4 PUSH1 0x13 DUP6 MSTORE PUSH32 0x4261736541676720476F6C642054726164657200000000000000000000000000 DUP4 DUP7 ADD MSTORE PUSH3 0x9E PUSH3 0x4A0 JUMP JUMPDEST SWAP5 PUSH1 0x9 DUP7 MSTORE PUSH9 0x109051D1CB51D3D311 PUSH1 0xBA SHL DUP5 DUP8 ADD MSTORE DUP1 MLOAD SWAP1 DUP4 DUP3 GT PUSH3 0x3E8 JUMPI DUP2 SWAP1 PUSH3 0xCD PUSH0 SLOAD PUSH3 0x4C0 JUMP JUMPDEST DUP11 DUP2 GT PUSH3 0x46C JUMPI JUMPDEST POP DUP6 SWAP1 DUP11 DUP4 GT PUSH1 0x1 EQ PUSH3 0x408 JUMPI PUSH0 SWAP3 PUSH3 0x3FC JUMPI JUMPDEST POP POP DUP2 PUSH1 0x1 SHL SWAP2 PUSH0 NOT SWAP1 PUSH1 0x3 SHL SHR NOT AND OR PUSH0 SSTORE JUMPDEST DUP5 MLOAD SWAP2 DUP3 GT PUSH3 0x3E8 JUMPI DUP2 SWAP1 PUSH1 0x1 SWAP6 PUSH3 0x11B DUP8 SLOAD PUSH3 0x4C0 JUMP JUMPDEST DUP10 DUP2 GT PUSH3 0x3AD JUMPI JUMPDEST POP DUP5 SWAP2 DUP10 DUP5 GT PUSH1 0x1 EQ PUSH3 0x34C JUMPI POP PUSH0 SWAP3 PUSH3 0x340 JUMPI JUMPDEST POP POP PUSH0 NOT PUSH1 0x3 DUP4 SWAP1 SHL SHR NOT AND SWAP1 DUP5 SHL OR DUP4 SSTORE JUMPDEST DUP4 ISZERO PUSH3 0x328 JUMPI PUSH1 0x21 PUSH1 0xF8 SHL SWAP5 PUSH1 0x2 SWAP5 PUSH32 0x656163686564203135303020706F696E74732E20456C69746520747261646572 SWAP4 PUSH1 0x6 SLOAD DUP3 PUSH1 0x1 DUP1 PUSH1 0xA0 SHL SUB NOT DUP3 AND OR PUSH1 0x6 SSTORE AND PUSH32 0x8BE0079C531659141344CD1FD0A4F28419497F9722A3DAAFE3B4186F6B6457E0 PUSH0 DUP1 LOG3 PUSH3 0x1C4 PUSH1 0xA SLOAD PUSH3 0x4C0 JUMP JUMPDEST DUP2 DUP2 GT PUSH3 0x306 JUMPI JUMPDEST POP PUSH32 0x476F6C6420547261646572000000000000000000000000000000000000000016 PUSH1 0xA SSTORE PUSH1 0xB SLOAD PUSH3 0x200 SWAP1 PUSH3 0x4C0 JUMP JUMPDEST DUP2 DUP2 GT PUSH3 0x2E4 JUMPI JUMPDEST POP PUSH1 0xC PUSH6 0x66666437303 PUSH1 0xD4 SHL ADD PUSH1 0xB SSTORE PUSH1 0xC SLOAD PUSH3 0x228 SWAP1 PUSH3 0x4C0 JUMP JUMPDEST DUP2 DUP2 GT PUSH3 0x2C2 JUMPI JUMPDEST POP PUSH1 0x8 PUSH4 0xF09FA587 PUSH1 0xE0 SHL ADD PUSH1 0xC SSTORE PUSH1 0xD SLOAD PUSH3 0x24E SWAP1 PUSH3 0x4C0 JUMP JUMPDEST DUP2 DUP2 GT PUSH3 0x29D JUMPI JUMPDEST POP POP PUSH1 0x83 PUSH1 0xD SSTORE PUSH1 0xD PUSH0 MSTORE PUSH0 KECCAK256 SWAP2 PUSH32 0x4177617264656420746F204261736541676720747261646572732077686F2072 DUP4 SSTORE DUP3 ADD SSTORE ADD SSTORE PUSH1 0x40 MLOAD PUSH2 0x1C20 SWAP1 DUP2 PUSH3 0x514 DUP3 CODECOPY RETURN JUMPDEST PUSH1 0x3 PUSH3 0x2BA SWAP3 PUSH1 0xD PUSH0 MSTORE DUP5 PUSH0 KECCAK256 SWAP3 ADD PUSH1 0x5 SHR DUP3 ADD SWAP2 ADD PUSH3 0x4FB JUMP JUMPDEST PUSH0 DUP1 PUSH3 0x257 JUMP JUMPDEST PUSH3 0x2DD SWAP1 PUSH1 0xC PUSH0 MSTORE DUP3 DUP5 PUSH0 KECCAK256 SWAP2 ADD PUSH1 0x5 SHR DUP2 ADD SWAP1 PUSH3 0x4FB JUMP JUMPDEST PUSH0 PUSH3 0x231 JUMP JUMPDEST PUSH3 0x2FF SWAP1 PUSH1 0xB PUSH0 MSTORE DUP3 DUP5 PUSH0 KECCAK256 SWAP2 ADD PUSH1 0x5 SHR DUP2 ADD SWAP1 PUSH3 0x4FB JUMP JUMPDEST PUSH0 PUSH3 0x209 JUMP JUMPDEST PUSH3 0x321 SWAP1 PUSH1 0xA PUSH0 MSTORE DUP3 DUP5 PUSH0 KECCAK256 SWAP2 ADD PUSH1 0x5 SHR DUP2 ADD SWAP1 PUSH3 0x4FB JUMP JUMPDEST PUSH0 PUSH3 0x1CD JUMP JUMPDEST PUSH1 0x40 MLOAD PUSH4 0x1E4FBDF7 PUSH1 0xE0 SHL DUP2 MSTORE PUSH0 PUSH1 0x4 DUP3 ADD MSTORE PUSH1 0x24 SWAP1 REVERT JUMPDEST ADD MLOAD SWAP1 POP PUSH0 DUP1 PUSH3 0x13B JUMP JUMPDEST DUP8 SWAP5 SWAP3 SWAP2 SWAP3 AND SWAP2 DUP5 PUSH0 MSTORE DUP6 PUSH0 KECCAK256 SWAP3 PUSH0 JUMPDEST DUP8 DUP3 DUP3 LT PUSH3 0x396 JUMPI POP POP DUP5 GT PUSH3 0x37D JUMPI JUMPDEST POP POP POP DUP2 SHL ADD DUP4 SSTORE PUSH3 0x14E JUMP JUMPDEST ADD MLOAD PUSH0 NOT PUSH1 0xF8 DUP5 PUSH1 0x3 SHL AND SHR NOT AND SWAP1 SSTORE PUSH0 DUP1 DUP1 PUSH3 0x36F JUMP JUMPDEST DUP4 DUP6 ADD MLOAD DUP7 SSTORE DUP11 SWAP8 SWAP1 SWAP6 ADD SWAP5 SWAP4 DUP5 ADD SWAP4 ADD PUSH3 0x35C JUMP JUMPDEST PUSH3 0x3D7 SWAP1 DUP9 PUSH0 MSTORE DUP7 PUSH0 KECCAK256 DUP12 DUP1 DUP8 ADD PUSH1 0x5 SHR DUP3 ADD SWAP3 DUP10 DUP9 LT PUSH3 0x3DE JUMPI JUMPDEST ADD PUSH1 0x5 SHR ADD SWAP1 PUSH3 0x4FB JUMP JUMPDEST PUSH0 PUSH3 0x124 JUMP JUMPDEST SWAP3 POP DUP2 SWAP3 PUSH3 0x3CB JUMP JUMPDEST PUSH4 0x4E487B71 PUSH1 0xE0 SHL PUSH0 MSTORE PUSH1 0x41 PUSH1 0x4 MSTORE PUSH1 0x24 PUSH0 REVERT JUMPDEST ADD MLOAD SWAP1 POP PUSH0 DUP1 PUSH3 0xEC JUMP JUMPDEST PUSH0 DUP1 DUP1 MSTORE DUP8 DUP2 KECCAK256 SWAP4 DUP7 AND SWAP1 JUMPDEST DUP9 DUP3 DUP3 LT PUSH3 0x455 JUMPI POP POP SWAP1 DUP5 PUSH1 0x1 SWAP6 SWAP5 SWAP4 SWAP3 LT PUSH3 0x43C JUMPI JUMPDEST POP POP POP DUP2 SHL ADD PUSH0 SSTORE PUSH3 0x100 JUMP JUMPDEST ADD MLOAD PUSH0 NOT PUSH1 0xF8 DUP5 PUSH1 0x3 SHL AND SHR NOT AND SWAP1 SSTORE PUSH0 DUP1 DUP1 PUSH3 0x42E JUMP JUMPDEST PUSH1 0x1 DUP6 SWAP7 DUP3 SWAP4 SWAP7 DUP7 ADD MLOAD DUP2 SSTORE ADD SWAP6 ADD SWAP4 ADD PUSH3 0x414 JUMP JUMPDEST PUSH3 0x495 SWAP1 PUSH0 DUP1 MSTORE DUP8 PUSH0 KECCAK256 DUP13 DUP1 DUP7 ADD PUSH1 0x5 SHR DUP3 ADD SWAP3 DUP11 DUP8 LT PUSH3 0x3DE JUMPI ADD PUSH1 0x5 SHR ADD SWAP1 PUSH3 0x4FB JUMP JUMPDEST PUSH0 PUSH3 0xD6 JUMP JUMPDEST PUSH0 DUP1 REVERT JUMPDEST PUSH1 0x40 DUP1 MLOAD SWAP2 SWAP1 DUP3 ADD PUSH1 0x1 PUSH1 0x1 PUSH1 0x40 SHL SUB DUP2 GT DUP4 DUP3 LT OR PUSH3 0x3E8 JUMPI PUSH1 0x40 MSTORE JUMP JUMPDEST SWAP1 PUSH1 0x1 DUP3 DUP2 SHR SWAP3 AND DUP1 ISZERO PUSH3 0x4F0 JUMPI JUMPDEST PUSH1 0x20 DUP4 LT EQ PUSH3 0x4DC JUMPI JUMP JUMPDEST PUSH4 0x4E487B71 PUSH1 0xE0 SHL PUSH0 MSTORE PUSH1 0x22 PUSH1 0x4 MSTORE PUSH1 0x24 PUSH0 REVERT JUMPDEST SWAP2 PUSH1 0x7F AND SWAP2 PUSH3 0x4D0 JUMP JUMPDEST DUP2 DUP2 LT PUSH3 0x507 JUMPI POP POP JUMP JUMPDEST PUSH0 DUP2 SSTORE PUSH1 0x1 ADD PUSH3 0x4FB JUMP INVALID PUSH1 0x80 PUSH1 0x40 SWAP1 DUP1 DUP3 MSTORE PUSH1 0x4 SWAP1 DUP2 CALLDATASIZE LT ISZERO PUSH2 0x16 JUMPI PUSH0 DUP1 REVERT JUMPDEST PUSH0 CALLDATALOAD PUSH1 0xE0 SHR SWAP1 DUP2 PUSH4 0x1FFC9A7 EQ PUSH2 0x132E JUMPI POP DUP1 PUSH4 0x6FDDE03 EQ PUSH2 0x1281 JUMPI DUP1 PUSH4 0x81812FC EQ PUSH2 0x1248 JUMPI DUP1 PUSH4 0x95EA7B3 EQ PUSH2 0x116C JUMPI DUP1 PUSH4 0x1249C58B EQ PUSH2 0xE8D JUMPI DUP1 PUSH4 0x18160DDD EQ PUSH2 0xE6F JUMPI DUP1 PUSH4 0x23B872DD EQ PUSH2 0xE58 JUMPI DUP1 PUSH4 0x38E21CCE EQ PUSH2 0xE1C JUMPI DUP1 PUSH4 0x42842E0E EQ PUSH2 0xDEE JUMPI DUP1 PUSH4 0x6352211E EQ PUSH2 0xDBE JUMPI DUP1 PUSH4 0x70A08231 EQ PUSH2 0xD69 JUMPI DUP1 PUSH4 0x715018A6 EQ PUSH2 0xD0E JUMPI DUP1 PUSH4 0x7C57D947 EQ PUSH2 0xCDE JUMPI DUP1 PUSH4 0x8DA5CB5B EQ PUSH2 0xCB6 JUMPI DUP1 PUSH4 0x95D89B41 EQ PUSH2 0xBE2 JUMPI DUP1 PUSH4 0xA22CB465 EQ PUSH2 0xB2A JUMPI DUP1 PUSH4 0xB88D4FDE EQ PUSH2 0xA97 JUMPI DUP1 PUSH4 0xC87B56DD EQ PUSH2 0x1D6 JUMPI DUP1 PUSH4 0xE985E9C5 EQ PUSH2 0x188 JUMPI PUSH4 0xF2FDE38B EQ PUSH2 0xFC JUMPI PUSH0 DUP1 REVERT JUMPDEST CALLVALUE PUSH2 0x184 JUMPI PUSH1 0x20 CALLDATASIZE PUSH1 0x3 NOT ADD SLT PUSH2 0x184 JUMPI PUSH2 0x115 PUSH2 0x13DE JUMP JUMPDEST SWAP1 PUSH2 0x11E PUSH2 0x17BA JUMP JUMPDEST PUSH1 0x1 PUSH1 0x1 PUSH1 0xA0 SHL SUB SWAP2 DUP3 AND SWAP3 DUP4 ISZERO PUSH2 0x16E JUMPI POP POP PUSH1 0x6 SLOAD DUP3 PUSH1 0x1 PUSH1 0x1 PUSH1 0x60 SHL SUB PUSH1 0xA0 SHL DUP3 AND OR PUSH1 0x6 SSTORE AND PUSH32 0x8BE0079C531659141344CD1FD0A4F28419497F9722A3DAAFE3B4186F6B6457E0 PUSH0 DUP1 LOG3 STOP JUMPDEST SWAP1 PUSH0 PUSH1 0x24 SWAP3 MLOAD SWAP2 PUSH4 0x1E4FBDF7 PUSH1 0xE0 SHL DUP4 MSTORE DUP3 ADD MSTORE REVERT JUMPDEST PUSH0 DUP1 REVERT JUMPDEST DUP3 CALLVALUE PUSH2 0x184 JUMPI DUP1 PUSH1 0x3 NOT CALLDATASIZE ADD SLT PUSH2 0x184 JUMPI PUSH1 0x20 SWAP1 PUSH2 0x1A4 PUSH2 0x13DE JUMP JUMPDEST PUSH2 0x1AC PUSH2 0x13F4 JUMP JUMPDEST SWAP1 PUSH1 0x1 DUP1 PUSH1 0xA0 SHL SUB DUP1 SWAP2 AND PUSH0 MSTORE PUSH1 0x5 DUP5 MSTORE DUP3 PUSH0 KECCAK256 SWAP2 AND PUSH0 MSTORE DUP3 MSTORE PUSH1 0xFF DUP2 PUSH0 KECCAK256 SLOAD AND SWAP1 MLOAD SWAP1 ISZERO ISZERO DUP2 MSTORE RETURN JUMPDEST POP CALLVALUE PUSH2 0x184 JUMPI PUSH1 0x20 SWAP1 DUP2 PUSH1 0x3 NOT CALLDATASIZE ADD SLT PUSH2 0x184 JUMPI DUP1 CALLDATALOAD SWAP1 PUSH2 0x1F6 DUP3 PUSH2 0x1780 JUMP JUMPDEST POP PUSH2 0x200 DUP3 PUSH2 0x1930 JUMP JUMPDEST SWAP1 DUP5 MLOAD SWAP3 PUSH32 0x3C73766720786D6C6E733D22687474703A2F2F7777772E77332E6F72672F3230 DUP6 DUP6 ADD MSTORE PUSH32 0x30302F737667222076696577426F783D223020302034303020343030223E0000 DUP7 DUP6 ADD MSTORE PUSH6 0x1E3232B3399F PUSH1 0xD1 SHL PUSH1 0x5E DUP6 ADD MSTORE PUSH32 0x3C6C696E6561724772616469656E742069643D226267222078313D2230252220 PUSH1 0x64 DUP6 ADD MSTORE PUSH32 0x79313D223025222078323D2231303025222079323D2231303025223E00000000 PUSH1 0x84 DUP6 ADD MSTORE DUP4 PUSH32 0x3C73746F70206F66667365743D22302522207374796C653D2273746F702D636F DUP1 PUSH1 0xA0 DUP4 ADD MSTORE PUSH14 0x3637B91D119832183218B091179F PUSH1 0x91 SHL PUSH1 0xC0 DUP4 ADD MSTORE PUSH32 0x3C73746F70206F66667365743D223130302522207374796C653D2273746F702D SWAP5 DUP6 PUSH1 0xCE DUP5 ADD MSTORE PUSH16 0x31B7B637B91D1198B098B0999A91179F PUSH1 0x81 SHL PUSH1 0xEE DUP5 ADD MSTORE PUSH17 0x1E17B634B732B0B923B930B234B2B73A1F PUSH1 0x79 SHL DUP1 PUSH1 0xFE DUP6 ADD MSTORE PUSH32 0x3C6C696E6561724772616469656E742069643D2274696572222078313D223025 PUSH2 0x10F DUP6 ADD MSTORE PUSH32 0x222079313D223025222078323D2231303025222079323D2231303025223E0000 PUSH2 0x12F DUP6 ADD MSTORE PUSH2 0x14D SWAP3 DUP4 DUP6 ADD MSTORE PUSH4 0x3637B91D PUSH1 0xE1 SHL PUSH2 0x16D DUP6 ADD MSTORE PUSH2 0x3B5 PUSH2 0x171 DUP6 ADD PUSH2 0x167B JUMP JUMPDEST PUSH3 0x11179F PUSH1 0xE9 SHL DUP2 MSTORE PUSH1 0x3 DUP2 ADD SWAP8 SWAP1 SWAP8 MSTORE PUSH16 0x31B7B637B91D119BB19AB1B33191179F PUSH1 0x81 SHL PUSH1 0x23 DUP9 ADD MSTORE PUSH1 0x33 DUP8 ADD MSTORE PUSH7 0x1E17B232B3399F PUSH1 0xC9 SHL PUSH1 0x44 DUP8 ADD MSTORE PUSH32 0x3C726563742077696474683D2234303022206865696768743D22343030222066 PUSH1 0x4B DUP8 ADD MSTORE PUSH32 0x696C6C3D2275726C2823626729222072783D223234222F3E0000000000000000 PUSH1 0x6B DUP8 ADD MSTORE PUSH32 0x3C7265637420783D2232302220793D223230222077696474683D223336302220 PUSH1 0x83 DUP8 ADD MSTORE PUSH32 0x6865696768743D22333630222066696C6C3D226E6F6E6522207374726F6B653D PUSH1 0xA3 DUP8 ADD MSTORE PUSH32 0x2275726C2823746965722922207374726F6B652D77696474683D223222207278 PUSH1 0xC3 DUP8 ADD MSTORE PUSH21 0x1E91189B111037B830B1B4BA3C9E9118171B11179F PUSH1 0x59 SHL PUSH1 0xE3 DUP8 ADD MSTORE PUSH32 0x3C7465787420783D223230302220793D223136302220666F6E742D73697A653D PUSH1 0xF8 DUP8 ADD MSTORE PUSH32 0x2238302220746578742D616E63686F723D226D6964646C652220646F6D696E61 PUSH2 0x118 DUP8 ADD MSTORE PUSH21 0x373A16B130B9B2B634B7329E9136B4B2323632911F PUSH1 0x59 SHL PUSH2 0x138 DUP8 ADD MSTORE PUSH1 0xC SLOAD SWAP6 PUSH0 SWAP3 SWAP1 PUSH2 0x54C DUP9 PUSH2 0x14AD JUMP JUMPDEST SWAP1 PUSH1 0x1 SWAP9 PUSH1 0x1 DUP2 AND SWAP1 DUP2 PUSH0 EQ PUSH2 0xA7C JUMPI POP PUSH1 0x1 EQ PUSH2 0xA1D JUMPI JUMPDEST POP POP POP PUSH2 0x6FB PUSH1 0xC8 PUSH7 0x1E17BA32BC3A1F PUSH1 0xC9 SHL SWAP4 DUP5 DUP2 MSTORE PUSH32 0x3C7465787420783D223230302220793D223233302220666F6E742D66616D696C PUSH1 0x7 DUP3 ADD MSTORE PUSH2 0x621 PUSH1 0x80 PUSH32 0x793D22417269616C2C73616E732D73657269662220666F6E742D73697A653D22 SWAP3 DUP4 PUSH1 0x27 DUP3 ADD MSTORE PUSH32 0x32322220666F6E742D7765696768743D22626F6C64222066696C6C3D22776869 PUSH1 0x47 DUP3 ADD MSTORE PUSH32 0x74652220746578742D616E63686F723D226D6964646C65223E00000000000000 PUSH1 0x67 DUP3 ADD MSTORE ADD PUSH2 0x1707 JUMP JUMPDEST SWAP1 DUP6 DUP3 MSTORE PUSH32 0x3C7465787420783D223230302220793D223236322220666F6E742D66616D696C PUSH1 0x7 DUP4 ADD MSTORE PUSH1 0x27 DUP3 ADD MSTORE PUSH32 0x3133222066696C6C3D22233838383861612220746578742D616E63686F723D22 PUSH1 0x47 DUP3 ADD MSTORE PUSH32 0x6D6964646C65223E42617365416767205472616465723C2F746578743E000000 PUSH1 0x67 DUP3 ADD MSTORE PUSH32 0x3C7465787420783D223230302220793D223334302220666F6E742D66616D696C PUSH1 0x84 DUP3 ADD MSTORE PUSH32 0x793D226D6F6E6F73706163652220666F6E742D73697A653D223131222066696C PUSH1 0xA4 DUP3 ADD MSTORE PUSH4 0x6C3D2223 PUSH1 0xE0 SHL PUSH1 0xC4 DUP3 ADD MSTORE ADD PUSH2 0x167B JUMP JUMPDEST PUSH32 0x2220746578742D616E63686F723D226D6964646C6522206F7061636974793D22 DUP2 MSTORE PUSH6 0x302E37223E23 PUSH1 0xD0 SHL DUP10 DUP3 ADD MSTORE PUSH2 0x73F DUP3 MLOAD DUP1 SWAP4 DUP12 PUSH1 0x26 DUP6 ADD SWAP2 ADD PUSH2 0x1398 JUMP JUMPDEST ADD SWAP1 PUSH1 0x26 DUP3 ADD MSTORE PUSH6 0x1E17B9BB339F PUSH1 0xD1 SHL PUSH1 0x2D DUP3 ADD MSTORE SUB PUSH2 0x76B PUSH1 0x33 PUSH1 0x13 SWAP3 PUSH1 0x13 DUP2 ADD DUP9 MSTORE ADD DUP7 PUSH2 0x146F JUMP JUMPDEST PUSH2 0x786 PUSH2 0x780 PUSH2 0x77A DUP5 PUSH2 0x1930 JUMP JUMPDEST SWAP7 PUSH2 0x1A97 JUMP JUMPDEST SWAP3 PUSH2 0x1930 JUMP JUMPDEST SWAP4 DUP8 MLOAD SWAP6 PUSH9 0x3D913730B6B2911D11 PUSH1 0xB9 SHL DUP9 DUP9 ADD MSTORE PUSH2 0x7A7 PUSH1 0x29 DUP9 ADD PUSH2 0x1707 JUMP JUMPDEST PUSH2 0x2023 PUSH1 0xF0 SHL DUP2 MSTORE PUSH2 0x7C2 DUP3 MLOAD DUP1 SWAP4 DUP12 PUSH1 0x2 DUP6 ADD SWAP2 ADD PUSH2 0x1398 JUMP JUMPDEST ADD PUSH2 0x88B PUSH1 0xF2 SHL SWAP5 DUP6 PUSH1 0x2 DUP4 ADD MSTORE PUSH15 0x113232B9B1B934B83A34B7B7111D11 PUSH1 0x89 SHL SWAP1 DUP3 ADD MSTORE PUSH0 SWAP3 PUSH1 0xD SLOAD SWAP3 PUSH2 0x7F6 DUP5 PUSH2 0x14AD JUMP JUMPDEST SWAP4 PUSH1 0x1 DUP2 AND SWAP1 DUP2 ISZERO PUSH2 0x9F0 JUMPI POP PUSH1 0x1 EQ PUSH2 0x990 JUMPI JUMPDEST POP POP POP POP DUP5 PUSH2 0x92C SWAP5 PUSH2 0x8B7 PUSH1 0x53 DUP7 PUSH2 0x927 SWAP7 DUP7 PUSH2 0x98C SWAP12 SWAP10 PUSH1 0x27 SWAP9 MSTORE PUSH32 0x22696D616765223A22646174613A696D6167652F7376672B786D6C3B62617365 PUSH1 0x2 DUP3 ADD MSTORE PUSH3 0xD8D0B PUSH1 0xEA SHL PUSH1 0x22 DUP3 ADD MSTORE PUSH2 0x86E DUP14 DUP4 MLOAD SWAP4 DUP5 SWAP2 PUSH1 0x25 DUP6 ADD SWAP2 ADD PUSH2 0x1398 JUMP JUMPDEST ADD SWAP1 PUSH1 0x25 DUP3 ADD MSTORE PUSH14 0x2261747472696275746573223A5B PUSH1 0x90 SHL DUP7 DUP3 ADD MSTORE PUSH32 0x7B2274726169745F74797065223A2254696572222C2276616C7565223A220000 PUSH1 0x35 DUP3 ADD MSTORE ADD PUSH2 0x1707 JUMP JUMPDEST PUSH3 0x89F4B PUSH1 0xEA SHL DUP2 MSTORE PUSH32 0x7B2274726169745F74797065223A22546F6B656E204944222C2276616C756522 PUSH1 0x3 DUP3 ADD MSTORE PUSH1 0x1D PUSH1 0xF9 SHL PUSH1 0x23 DUP3 ADD MSTORE PUSH2 0x903 DUP3 MLOAD DUP1 SWAP4 DUP12 PUSH1 0x24 DUP6 ADD SWAP2 ADD PUSH2 0x1398 JUMP JUMPDEST ADD PUSH1 0x7D PUSH1 0xF8 SHL PUSH1 0x24 DUP3 ADD MSTORE PUSH2 0x5D7D PUSH1 0xF0 SHL PUSH1 0x25 DUP3 ADD MSTORE SUB PUSH1 0x7 DUP2 ADD DUP5 MSTORE ADD DUP3 PUSH2 0x146F JUMP JUMPDEST PUSH2 0x1A97 JUMP JUMPDEST SWAP3 PUSH2 0x97D PUSH1 0x3D DUP3 MLOAD DUP1 SWAP7 PUSH32 0x646174613A6170706C69636174696F6E2F6A736F6E3B6261736536342C000000 DUP8 DUP4 ADD MSTORE PUSH2 0x96D DUP2 MLOAD DUP1 SWAP3 DUP10 DUP7 DUP7 ADD SWAP2 ADD PUSH2 0x1398 JUMP JUMPDEST DUP2 ADD SUB PUSH1 0x1D DUP2 ADD DUP8 MSTORE ADD DUP6 PUSH2 0x146F JUMP JUMPDEST MLOAD SWAP3 DUP3 DUP5 SWAP4 DUP5 MSTORE DUP4 ADD SWAP1 PUSH2 0x13B9 JUMP JUMPDEST SUB SWAP1 RETURN JUMPDEST SWAP1 SWAP2 SWAP3 SWAP4 POP PUSH1 0xD PUSH0 MSTORE PUSH32 0xD7B6990105719101DABEB77144F2A3385C8033ACD3AF97E9423A695E81AD1EB5 DUP10 PUSH0 SWAP2 JUMPDEST DUP7 DUP4 LT PUSH2 0x9DC JUMPI POP POP POP POP SWAP2 ADD PUSH1 0x13 ADD SWAP1 POP DUP5 DUP5 PUSH2 0x8B7 PUSH1 0x53 PUSH2 0x80B JUMP JUMPDEST DUP1 SLOAD DUP7 DUP5 ADD DUP7 ADD MSTORE SWAP2 ADD SWAP1 DUP11 SWAP1 DUP4 ADD PUSH2 0x9BE JUMP JUMPDEST PUSH1 0xFF NOT AND PUSH1 0x13 DUP6 DUP2 ADD SWAP2 SWAP1 SWAP2 MSTORE DUP6 ISZERO ISZERO SWAP1 SWAP6 MUL SWAP1 SWAP4 ADD SWAP1 SWAP4 ADD SWAP4 POP DUP8 SWAP3 POP DUP7 SWAP2 POP PUSH2 0x8B7 SWAP1 POP PUSH1 0x53 PUSH2 0x80B JUMP JUMPDEST SWAP1 SWAP2 SWAP3 SWAP4 POP PUSH1 0xC PUSH0 MSTORE PUSH32 0xDF6966C971051C3D54EC59162606531493A51404A002842F56009D7E5CF4A8C7 DUP11 DUP10 PUSH0 SWAP3 JUMPDEST DUP6 DUP5 LT PUSH2 0xA62 JUMPI POP POP POP POP ADD ADD SWAP1 PUSH0 DUP1 DUP1 PUSH2 0x565 JUMP JUMPDEST DUP1 SLOAD DUP6 DUP6 ADD DUP9 ADD MSTORE DUP13 SWAP9 POP SWAP3 SWAP1 SWAP2 ADD SWAP2 DUP13 SWAP2 DUP12 SWAP2 ADD PUSH2 0xA4C JUMP JUMPDEST PUSH1 0xFF NOT AND DUP5 DUP4 ADD MSTORE POP DUP2 ISZERO ISZERO SWAP1 SWAP2 MUL ADD ADD SWAP2 POP PUSH0 DUP1 DUP1 PUSH2 0x565 JUMP JUMPDEST POP SWAP1 CALLVALUE PUSH2 0x184 JUMPI PUSH1 0x80 CALLDATASIZE PUSH1 0x3 NOT ADD SLT PUSH2 0x184 JUMPI PUSH2 0xAB2 PUSH2 0x13DE JUMP JUMPDEST PUSH2 0xABA PUSH2 0x13F4 JUMP JUMPDEST PUSH1 0x44 CALLDATALOAD SWAP2 PUSH1 0x64 CALLDATALOAD SWAP5 PUSH8 0xFFFFFFFFFFFFFFFF DUP7 GT PUSH2 0x184 JUMPI CALLDATASIZE PUSH1 0x23 DUP8 ADD SLT ISZERO PUSH2 0x184 JUMPI DUP6 ADD CALLDATALOAD PUSH2 0xAF4 PUSH2 0xAEB DUP3 PUSH2 0x1491 JUMP JUMPDEST SWAP6 MLOAD SWAP6 DUP7 PUSH2 0x146F JUMP JUMPDEST DUP1 DUP6 MSTORE CALLDATASIZE PUSH1 0x24 DUP3 DUP9 ADD ADD GT PUSH2 0x184 JUMPI PUSH1 0x20 DUP2 PUSH0 SWAP3 PUSH1 0x24 PUSH2 0xB28 SWAP10 ADD DUP4 DUP10 ADD CALLDATACOPY DUP7 ADD ADD MSTORE PUSH2 0xB22 DUP4 DUP4 DUP4 PUSH2 0x14E5 JUMP JUMPDEST CALLER PUSH2 0x17E6 JUMP JUMPDEST STOP JUMPDEST POP SWAP1 CALLVALUE PUSH2 0x184 JUMPI DUP1 PUSH1 0x3 NOT CALLDATASIZE ADD SLT PUSH2 0x184 JUMPI PUSH2 0xB44 PUSH2 0x13DE JUMP JUMPDEST SWAP1 PUSH1 0x24 CALLDATALOAD SWAP2 DUP3 ISZERO ISZERO DUP1 SWAP4 SUB PUSH2 0x184 JUMPI CALLER ISZERO PUSH2 0xBCC JUMPI PUSH1 0x1 PUSH1 0x1 PUSH1 0xA0 SHL SUB AND SWAP3 DUP4 ISZERO PUSH2 0xBB7 JUMPI POP CALLER PUSH0 MSTORE PUSH1 0x5 PUSH1 0x20 MSTORE DUP1 PUSH0 KECCAK256 DUP4 PUSH0 MSTORE PUSH1 0x20 MSTORE DUP1 PUSH0 KECCAK256 PUSH1 0xFF NOT DUP2 SLOAD AND PUSH1 0xFF DUP5 AND OR SWAP1 SSTORE MLOAD SWAP1 DUP2 MSTORE PUSH32 0x17307EAB39AB6107E8899845AD3D59BD9653F200F220920489CA2B5937696C31 PUSH1 0x20 CALLER SWAP3 LOG3 STOP JUMPDEST DUP4 PUSH1 0x24 SWAP3 MLOAD SWAP2 PUSH4 0xB611743 PUSH1 0xE3 SHL DUP4 MSTORE DUP3 ADD MSTORE REVERT JUMPDEST DUP2 MLOAD PUSH4 0xA9FBF51F PUSH1 0xE0 SHL DUP2 MSTORE PUSH0 DUP2 DUP7 ADD MSTORE PUSH1 0x24 SWAP1 REVERT JUMPDEST DUP3 CALLVALUE PUSH2 0x184 JUMPI PUSH0 CALLDATASIZE PUSH1 0x3 NOT ADD SLT PUSH2 0x184 JUMPI DUP1 MLOAD SWAP1 PUSH0 SWAP1 DUP3 PUSH1 0x1 SWAP3 PUSH1 0x1 SLOAD SWAP4 PUSH2 0xC09 DUP6 PUSH2 0x14AD JUMP JUMPDEST SWAP1 DUP2 DUP5 MSTORE PUSH1 0x20 SWAP6 DUP7 PUSH1 0x1 DUP3 AND SWAP2 DUP3 PUSH0 EQ PUSH2 0xC94 JUMPI POP POP PUSH1 0x1 EQ PUSH2 0xC39 JUMPI JUMPDEST POP POP PUSH2 0x98C SWAP3 SWAP2 PUSH2 0x97D SWAP2 SUB DUP6 PUSH2 0x146F JUMP JUMPDEST SWAP1 DUP6 SWAP3 POP PUSH1 0x1 PUSH0 MSTORE PUSH32 0xB10E2D527612073B26EECDFD717E6A320CF44B4AFAC2B0732D9FCBE2B7FA0CF6 SWAP2 PUSH0 SWAP3 JUMPDEST DUP3 DUP5 LT PUSH2 0xC7C JUMPI POP POP POP DUP3 ADD ADD DUP2 PUSH2 0x97D PUSH2 0xC27 JUMP JUMPDEST DUP1 SLOAD DUP5 DUP11 ADD DUP7 ADD MSTORE DUP9 SWAP6 POP DUP8 SWAP5 SWAP1 SWAP4 ADD SWAP3 DUP2 ADD PUSH2 0xC66 JUMP JUMPDEST PUSH1 0xFF NOT AND DUP7 DUP3 ADD MSTORE SWAP3 ISZERO ISZERO PUSH1 0x5 SHL DUP6 ADD SWAP1 SWAP3 ADD SWAP3 POP DUP4 SWAP2 POP PUSH2 0x97D SWAP1 POP PUSH2 0xC27 JUMP JUMPDEST DUP3 CALLVALUE PUSH2 0x184 JUMPI PUSH0 CALLDATASIZE PUSH1 0x3 NOT ADD SLT PUSH2 0x184 JUMPI PUSH1 0x6 SLOAD SWAP1 MLOAD PUSH1 0x1 PUSH1 0x1 PUSH1 0xA0 SHL SUB SWAP1 SWAP2 AND DUP2 MSTORE PUSH1 0x20 SWAP1 RETURN JUMPDEST POP SWAP1 CALLVALUE PUSH2 0x184 JUMPI PUSH1 0x20 CALLDATASIZE PUSH1 0x3 NOT ADD SLT PUSH2 0x184 JUMPI PUSH1 0x20 SWAP2 CALLDATALOAD PUSH0 MSTORE PUSH1 0x9 DUP3 MSTORE PUSH1 0x1 DUP1 PUSH1 0xA0 SHL SUB DUP2 PUSH0 KECCAK256 SLOAD AND SWAP1 MLOAD SWAP1 DUP2 MSTORE RETURN JUMPDEST CALLVALUE PUSH2 0x184 JUMPI PUSH0 CALLDATASIZE PUSH1 0x3 NOT ADD SLT PUSH2 0x184 JUMPI PUSH2 0xD26 PUSH2 0x17BA JUMP JUMPDEST PUSH1 0x6 DUP1 SLOAD PUSH1 0x1 PUSH1 0x1 PUSH1 0xA0 SHL SUB NOT DUP2 AND SWAP1 SWAP2 SSTORE PUSH0 SWAP1 PUSH1 0x1 PUSH1 0x1 PUSH1 0xA0 SHL SUB AND PUSH32 0x8BE0079C531659141344CD1FD0A4F28419497F9722A3DAAFE3B4186F6B6457E0 DUP3 DUP1 LOG3 STOP JUMPDEST POP SWAP1 CALLVALUE PUSH2 0x184 JUMPI PUSH1 0x20 CALLDATASIZE PUSH1 0x3 NOT ADD SLT PUSH2 0x184 JUMPI PUSH1 0x1 PUSH1 0x1 PUSH1 0xA0 SHL SUB PUSH2 0xD8C PUSH2 0x13DE JUMP JUMPDEST AND DUP1 ISZERO PUSH2 0xDA8 JUMPI PUSH1 0x20 SWAP3 POP PUSH0 MSTORE PUSH1 0x3 DUP3 MSTORE DUP1 PUSH0 KECCAK256 SLOAD SWAP1 MLOAD SWAP1 DUP2 MSTORE RETURN JUMPDEST DUP2 MLOAD PUSH4 0x22718AD9 PUSH1 0xE2 SHL DUP2 MSTORE PUSH0 DUP2 DUP6 ADD MSTORE PUSH1 0x24 SWAP1 REVERT JUMPDEST POP SWAP1 CALLVALUE PUSH2 0x184 JUMPI PUSH1 0x20 CALLDATASIZE PUSH1 0x3 NOT ADD SLT PUSH2 0x184 JUMPI PUSH2 0xDDD PUSH1 0x20 SWAP3 CALLDATALOAD PUSH2 0x1780 JUMP JUMPDEST SWAP1 MLOAD PUSH1 0x1 PUSH1 0x1 PUSH1 0xA0 SHL SUB SWAP1 SWAP2 AND DUP2 MSTORE RETURN JUMPDEST DUP3 CALLVALUE PUSH2 0x184 JUMPI PUSH2 0xB28 SWAP1 PUSH2 0xE01 CALLDATASIZE PUSH2 0x140A JUMP JUMPDEST SWAP2 SWAP3 MLOAD SWAP3 PUSH2 0xE0E DUP5 PUSH2 0x143F JUMP JUMPDEST PUSH0 DUP5 MSTORE PUSH2 0xB22 DUP4 DUP4 DUP4 PUSH2 0x14E5 JUMP JUMPDEST DUP3 CALLVALUE PUSH2 0x184 JUMPI PUSH1 0x20 CALLDATASIZE PUSH1 0x3 NOT ADD SLT PUSH2 0x184 JUMPI PUSH1 0x20 SWAP1 PUSH1 0x1 PUSH1 0x1 PUSH1 0xA0 SHL SUB PUSH2 0xE41 PUSH2 0x13DE JUMP JUMPDEST AND PUSH0 MSTORE PUSH1 0x8 DUP3 MSTORE PUSH1 0xFF DUP2 PUSH0 KECCAK256 SLOAD AND SWAP1 MLOAD SWAP1 ISZERO ISZERO DUP2 MSTORE RETURN JUMPDEST CALLVALUE PUSH2 0x184 JUMPI PUSH2 0xB28 PUSH2 0xE69 CALLDATASIZE PUSH2 0x140A JUMP JUMPDEST SWAP2 PUSH2 0x14E5 JUMP JUMPDEST DUP3 CALLVALUE PUSH2 0x184 JUMPI PUSH0 CALLDATASIZE PUSH1 0x3 NOT ADD SLT PUSH2 0x184 JUMPI PUSH1 0x20 SWAP1 PUSH1 0x7 SLOAD SWAP1 MLOAD SWAP1 DUP2 MSTORE RETURN JUMPDEST POP CALLVALUE PUSH2 0x184 JUMPI PUSH0 CALLDATASIZE PUSH1 0x3 NOT ADD SLT PUSH2 0x184 JUMPI CALLER PUSH0 MSTORE PUSH1 0x20 SWAP1 PUSH1 0x8 DUP3 MSTORE PUSH1 0xFF DUP4 PUSH0 KECCAK256 SLOAD AND PUSH2 0x113A JUMPI PUSH1 0x7 SLOAD SWAP3 PUSH0 NOT DUP1 DUP6 EQ PUSH2 0x1127 JUMPI PUSH1 0x1 DUP6 ADD PUSH1 0x7 SSTORE CALLER PUSH0 MSTORE PUSH1 0x8 DUP5 MSTORE DUP2 PUSH0 KECCAK256 PUSH1 0x1 PUSH1 0xFF NOT DUP3 SLOAD AND OR SWAP1 SSTORE DUP5 PUSH0 MSTORE PUSH1 0x9 DUP5 MSTORE DUP2 PUSH0 KECCAK256 SWAP1 PUSH1 0x1 PUSH1 0x1 PUSH1 0x60 SHL SUB PUSH1 0xA0 SHL SWAP2 CALLER DUP4 DUP3 SLOAD AND OR SWAP1 SSTORE DUP3 MLOAD SWAP2 PUSH2 0xF07 DUP4 PUSH2 0x143F JUMP JUMPDEST PUSH0 DUP4 MSTORE CALLER ISZERO PUSH2 0x1111 JUMPI PUSH0 DUP8 DUP2 MSTORE PUSH1 0x2 DUP8 MSTORE DUP5 SWAP1 KECCAK256 SLOAD PUSH1 0x1 PUSH1 0x1 PUSH1 0xA0 SHL SUB AND DUP1 ISZERO ISZERO SWAP3 DUP9 SWAP3 SWAP1 DUP5 PUSH2 0x10E0 JUMPI JUMPDEST POP CALLER PUSH0 MSTORE PUSH1 0x3 DUP9 MSTORE DUP6 PUSH0 KECCAK256 PUSH1 0x1 DUP2 SLOAD ADD SWAP1 SSTORE DUP3 PUSH0 MSTORE PUSH1 0x2 DUP9 MSTORE DUP6 PUSH0 KECCAK256 SWAP1 CALLER SWAP1 DUP3 SLOAD AND OR SWAP1 SSTORE CALLER SWAP1 PUSH32 0xDDF252AD1BE2C89B69C2B068FC378DAA952BA7F163C4A11628F55A4DF523B3EF PUSH0 DUP1 LOG4 PUSH2 0x10CA JUMPI CALLER EXTCODESIZE PUSH2 0xFB0 JUMPI JUMPDEST DUP5 CALLER PUSH32 0x30385C845B448A36257A6A1716E6AD2E1BC2CBE333CDE1E69FE849AD6511ADFE PUSH0 DUP1 LOG3 STOP JUMPDEST DUP2 SWAP3 SWAP4 SWAP5 SWAP2 MLOAD DUP6 DUP2 DUP1 PUSH2 0xFEA PUSH4 0xA85BD01 PUSH1 0xE1 SHL SWAP6 DUP7 DUP4 MSTORE CALLER DUP11 DUP5 ADD MSTORE PUSH0 PUSH1 0x24 DUP5 ADD MSTORE DUP8 PUSH1 0x44 DUP5 ADD MSTORE PUSH1 0x80 PUSH1 0x64 DUP5 ADD MSTORE PUSH1 0x84 DUP4 ADD SWAP1 PUSH2 0x13B9 JUMP JUMPDEST SUB DUP2 PUSH0 CALLER GAS CALL PUSH0 SWAP2 DUP2 PUSH2 0x108A JUMPI JUMPDEST POP PUSH2 0x1054 JUMPI POP POP POP RETURNDATASIZE PUSH0 EQ PUSH2 0x104C JUMPI RETURNDATASIZE SWAP3 PUSH2 0x1012 DUP5 PUSH2 0x1491 JUMP JUMPDEST SWAP4 PUSH2 0x101F DUP4 MLOAD SWAP6 DUP7 PUSH2 0x146F JUMP JUMPDEST DUP5 MSTORE RETURNDATASIZE PUSH0 DUP3 DUP7 ADD RETURNDATACOPY JUMPDEST DUP4 MLOAD SWAP4 DUP5 PUSH2 0x1046 JUMPI DUP3 MLOAD PUSH4 0x32505749 PUSH1 0xE1 SHL DUP2 MSTORE CALLER DUP2 DUP7 ADD MSTORE PUSH1 0x24 SWAP1 REVERT JUMPDEST DUP5 SWAP3 POP ADD REVERT JUMPDEST PUSH1 0x60 SWAP3 PUSH2 0x1028 JUMP JUMPDEST SWAP2 SWAP5 POP PUSH1 0x1 PUSH1 0x1 PUSH1 0xE0 SHL SUB NOT SWAP1 SWAP2 AND SUB PUSH2 0x1073 JUMPI POP POP PUSH0 DUP1 DUP1 DUP1 PUSH2 0xF88 JUMP JUMPDEST PUSH1 0x24 SWAP3 POP MLOAD SWAP1 PUSH4 0x32505749 PUSH1 0xE1 SHL DUP3 MSTORE CALLER SWAP1 DUP3 ADD MSTORE REVERT JUMPDEST SWAP1 SWAP2 POP DUP7 DUP2 DUP2 RETURNDATASIZE DUP4 GT PUSH2 0x10C3 JUMPI JUMPDEST PUSH2 0x10A2 DUP2 DUP4 PUSH2 0x146F JUMP JUMPDEST DUP2 ADD SUB SLT PUSH2 0x184 JUMPI MLOAD PUSH1 0x1 PUSH1 0x1 PUSH1 0xE0 SHL SUB NOT DUP2 AND DUP2 SUB PUSH2 0x184 JUMPI SWAP1 PUSH0 PUSH2 0xFF8 JUMP JUMPDEST POP RETURNDATASIZE PUSH2 0x1098 JUMP JUMPDEST DUP2 MLOAD PUSH4 0x39E35637 PUSH1 0xE1 SHL DUP2 MSTORE PUSH0 DUP2 DUP6 ADD MSTORE PUSH1 0x24 SWAP1 REVERT JUMPDEST PUSH0 DUP5 DUP2 MSTORE PUSH1 0x4 PUSH1 0x20 MSTORE PUSH1 0x40 SWAP1 KECCAK256 DUP1 SLOAD PUSH1 0x1 PUSH1 0x1 PUSH1 0xA0 SHL SUB NOT AND SWAP1 SSTORE DUP3 PUSH0 MSTORE PUSH1 0x3 DUP10 MSTORE DUP7 PUSH0 KECCAK256 SWAP1 DUP2 SLOAD ADD SWAP1 SSTORE PUSH0 PUSH2 0xF32 JUMP JUMPDEST DUP4 MLOAD PUSH4 0x32505749 PUSH1 0xE1 SHL DUP2 MSTORE PUSH0 DUP2 DUP8 ADD MSTORE PUSH1 0x24 SWAP1 REVERT JUMPDEST PUSH1 0x11 DUP4 PUSH4 0x4E487B71 PUSH1 0xE0 SHL PUSH0 MSTORE MSTORE PUSH1 0x24 PUSH0 REVERT JUMPDEST SWAP2 MLOAD PUSH3 0x461BCD PUSH1 0xE5 SHL DUP2 MSTORE SWAP2 DUP3 ADD MSTORE PUSH1 0xE PUSH1 0x24 DUP3 ADD MSTORE PUSH14 0x105B1C9958591E481B5A5B9D1959 PUSH1 0x92 SHL PUSH1 0x44 DUP3 ADD MSTORE PUSH1 0x64 SWAP1 REVERT JUMPDEST POP SWAP1 CALLVALUE PUSH2 0x184 JUMPI DUP1 PUSH1 0x3 NOT CALLDATASIZE ADD SLT PUSH2 0x184 JUMPI PUSH2 0x1186 PUSH2 0x13DE JUMP JUMPDEST SWAP2 PUSH1 0x24 CALLDATALOAD PUSH2 0x1193 DUP2 PUSH2 0x1780 JUMP JUMPDEST CALLER ISZERO ISZERO DUP1 PUSH2 0x1235 JUMPI JUMPDEST DUP1 PUSH2 0x120E JUMPI JUMPDEST PUSH2 0x11F8 JUMPI PUSH1 0x1 PUSH1 0x1 PUSH1 0xA0 SHL SUB SWAP5 DUP6 AND SWAP5 DUP3 SWAP2 DUP7 SWAP2 AND PUSH32 0x8C5BE1E5EBEC7D5BD14F71427D1E84F3DD0314C0F7B2291E5B200AC8C7C3B925 PUSH0 DUP1 LOG4 PUSH0 MSTORE PUSH1 0x20 MSTORE PUSH0 KECCAK256 SWAP1 PUSH1 0x1 PUSH1 0x1 PUSH1 0x60 SHL SUB PUSH1 0xA0 SHL DUP3 SLOAD AND OR SWAP1 SSTORE PUSH0 DUP1 RETURN JUMPDEST DUP4 MLOAD PUSH4 0xA9FBF51F PUSH1 0xE0 SHL DUP2 MSTORE CALLER DUP2 DUP6 ADD MSTORE PUSH1 0x24 SWAP1 REVERT JUMPDEST POP PUSH1 0x1 DUP1 PUSH1 0xA0 SHL SUB DUP2 AND PUSH0 MSTORE PUSH1 0x5 PUSH1 0x20 MSTORE DUP4 PUSH0 KECCAK256 CALLER PUSH0 MSTORE PUSH1 0x20 MSTORE PUSH1 0xFF DUP5 PUSH0 KECCAK256 SLOAD AND ISZERO PUSH2 0x11A2 JUMP JUMPDEST POP PUSH1 0x1 PUSH1 0x1 PUSH1 0xA0 SHL SUB DUP2 AND CALLER EQ ISZERO PUSH2 0x119C JUMP JUMPDEST POP SWAP1 CALLVALUE PUSH2 0x184 JUMPI PUSH1 0x20 CALLDATASIZE PUSH1 0x3 NOT ADD SLT PUSH2 0x184 JUMPI DUP2 PUSH1 0x20 SWAP3 CALLDATALOAD PUSH2 0x1269 DUP2 PUSH2 0x1780 JUMP JUMPDEST POP PUSH0 MSTORE DUP3 MSTORE PUSH1 0x1 DUP1 PUSH1 0xA0 SHL SUB DUP2 PUSH0 KECCAK256 SLOAD AND SWAP1 MLOAD SWAP1 DUP2 MSTORE RETURN JUMPDEST DUP3 CALLVALUE PUSH2 0x184 JUMPI PUSH0 CALLDATASIZE PUSH1 0x3 NOT ADD SLT PUSH2 0x184 JUMPI DUP1 MLOAD SWAP1 PUSH0 SWAP1 DUP3 PUSH0 SLOAD SWAP3 PUSH2 0x12A4 DUP5 PUSH2 0x14AD JUMP JUMPDEST DUP1 DUP4 MSTORE PUSH1 0x20 SWAP5 PUSH1 0x1 SWAP1 DUP7 PUSH1 0x1 DUP3 AND SWAP2 DUP3 PUSH0 EQ PUSH2 0xC94 JUMPI POP POP PUSH1 0x1 EQ PUSH2 0x12D5 JUMPI POP POP PUSH2 0x98C SWAP3 SWAP2 PUSH2 0x97D SWAP2 SUB DUP6 PUSH2 0x146F JUMP JUMPDEST PUSH0 DUP1 DUP1 MSTORE DUP7 SWAP4 POP SWAP2 SWAP1 PUSH32 0x290DECD9548B62A8D60345A988386FC84BA6BC95484008F6362F93160EF3E563 JUMPDEST DUP3 DUP5 LT PUSH2 0x1316 JUMPI POP POP POP DUP3 ADD ADD DUP2 PUSH2 0x97D PUSH2 0xC27 JUMP JUMPDEST DUP1 SLOAD DUP5 DUP11 ADD DUP7 ADD MSTORE DUP9 SWAP6 POP DUP8 SWAP5 SWAP1 SWAP4 ADD SWAP3 DUP2 ADD PUSH2 0x1300 JUMP JUMPDEST DUP3 CALLVALUE PUSH2 0x184 JUMPI PUSH1 0x20 CALLDATASIZE PUSH1 0x3 NOT ADD SLT PUSH2 0x184 JUMPI CALLDATALOAD SWAP1 PUSH4 0xFFFFFFFF PUSH1 0xE0 SHL DUP3 AND DUP1 SWAP3 SUB PUSH2 0x184 JUMPI PUSH1 0x20 SWAP2 PUSH4 0x80AC58CD PUSH1 0xE0 SHL DUP2 EQ SWAP1 DUP2 ISZERO PUSH2 0x1387 JUMPI JUMPDEST DUP2 ISZERO PUSH2 0x1376 JUMPI JUMPDEST POP ISZERO ISZERO DUP2 MSTORE RETURN JUMPDEST PUSH4 0x1FFC9A7 PUSH1 0xE0 SHL EQ SWAP1 POP DUP4 PUSH2 0x136F JUMP JUMPDEST PUSH4 0x5B5E139F PUSH1 0xE0 SHL DUP2 EQ SWAP2 POP PUSH2 0x1368 JUMP JUMPDEST PUSH0 JUMPDEST DUP4 DUP2 LT PUSH2 0x13A9 JUMPI POP POP PUSH0 SWAP2 ADD MSTORE JUMP JUMPDEST DUP2 DUP2 ADD MLOAD DUP4 DUP3 ADD MSTORE PUSH1 0x20 ADD PUSH2 0x139A JUMP JUMPDEST SWAP1 PUSH1 0x20 SWAP2 PUSH2 0x13D2 DUP2 MLOAD DUP1 SWAP3 DUP2 DUP6 MSTORE DUP6 DUP1 DUP7 ADD SWAP2 ADD PUSH2 0x1398 JUMP JUMPDEST PUSH1 0x1F ADD PUSH1 0x1F NOT AND ADD ADD SWAP1 JUMP JUMPDEST PUSH1 0x4 CALLDATALOAD SWAP1 PUSH1 0x1 PUSH1 0x1 PUSH1 0xA0 SHL SUB DUP3 AND DUP3 SUB PUSH2 0x184 JUMPI JUMP JUMPDEST PUSH1 0x24 CALLDATALOAD SWAP1 PUSH1 0x1 PUSH1 0x1 PUSH1 0xA0 SHL SUB DUP3 AND DUP3 SUB PUSH2 0x184 JUMPI JUMP JUMPDEST PUSH1 0x60 SWAP1 PUSH1 0x3 NOT ADD SLT PUSH2 0x184 JUMPI PUSH1 0x1 PUSH1 0x1 PUSH1 0xA0 SHL SUB SWAP1 PUSH1 0x4 CALLDATALOAD DUP3 DUP2 AND DUP2 SUB PUSH2 0x184 JUMPI SWAP2 PUSH1 0x24 CALLDATALOAD SWAP1 DUP2 AND DUP2 SUB PUSH2 0x184 JUMPI SWAP1 PUSH1 0x44 CALLDATALOAD SWAP1 JUMP JUMPDEST PUSH1 0x20 DUP2 ADD SWAP1 DUP2 LT PUSH8 0xFFFFFFFFFFFFFFFF DUP3 GT OR PUSH2 0x145B JUMPI PUSH1 0x40 MSTORE JUMP JUMPDEST PUSH4 0x4E487B71 PUSH1 0xE0 SHL PUSH0 MSTORE PUSH1 0x41 PUSH1 0x4 MSTORE PUSH1 0x24 PUSH0 REVERT JUMPDEST SWAP1 PUSH1 0x1F DUP1 NOT SWAP2 ADD AND DUP2 ADD SWAP1 DUP2 LT PUSH8 0xFFFFFFFFFFFFFFFF DUP3 GT OR PUSH2 0x145B JUMPI PUSH1 0x40 MSTORE JUMP JUMPDEST PUSH8 0xFFFFFFFFFFFFFFFF DUP2 GT PUSH2 0x145B JUMPI PUSH1 0x1F ADD PUSH1 0x1F NOT AND PUSH1 0x20 ADD SWAP1 JUMP JUMPDEST SWAP1 PUSH1 0x1 DUP3 DUP2 SHR SWAP3 AND DUP1 ISZERO PUSH2 0x14DB JUMPI JUMPDEST PUSH1 0x20 DUP4 LT EQ PUSH2 0x14C7 JUMPI JUMP JUMPDEST PUSH4 0x4E487B71 PUSH1 0xE0 SHL PUSH0 MSTORE PUSH1 0x22 PUSH1 0x4 MSTORE PUSH1 0x24 PUSH0 REVERT JUMPDEST SWAP2 PUSH1 0x7F AND SWAP2 PUSH2 0x14BC JUMP JUMPDEST PUSH1 0x1 PUSH1 0x1 PUSH1 0xA0 SHL SUB SWAP2 DUP3 AND SWAP3 SWAP1 SWAP2 DUP4 ISZERO PUSH2 0x1663 JUMPI DUP2 PUSH0 MSTORE PUSH1 0x20 SWAP3 PUSH1 0x2 DUP5 MSTORE DUP3 PUSH1 0x40 SWAP6 DUP4 DUP8 PUSH0 KECCAK256 SLOAD AND SWAP6 CALLER ISZERO ISZERO DUP1 PUSH2 0x15D1 JUMPI JUMPDEST POP PUSH1 0x2 SWAP1 DUP8 PUSH2 0x15A0 JUMPI JUMPDEST DUP3 PUSH0 MSTORE PUSH1 0x3 DUP2 MSTORE DUP9 PUSH0 KECCAK256 PUSH1 0x1 DUP2 SLOAD ADD SWAP1 SSTORE DUP4 PUSH0 MSTORE MSTORE DUP7 PUSH0 KECCAK256 DUP2 PUSH1 0x1 PUSH1 0x1 PUSH1 0x60 SHL SUB PUSH1 0xA0 SHL DUP3 SLOAD AND OR SWAP1 SSTORE DUP6 PUSH32 0xDDF252AD1BE2C89B69C2B068FC378DAA952BA7F163C4A11628F55A4DF523B3EF PUSH0 DUP1 LOG4 AND SWAP3 DUP4 DUP4 SUB PUSH2 0x157F JUMPI POP POP POP POP JUMP JUMPDEST PUSH1 0x64 SWAP5 POP MLOAD SWAP3 PUSH4 0x64283D7B PUSH1 0xE0 SHL DUP5 MSTORE PUSH1 0x4 DUP5 ADD MSTORE PUSH1 0x24 DUP4 ADD MSTORE PUSH1 0x44 DUP3 ADD MSTORE REVERT JUMPDEST PUSH0 DUP5 DUP2 MSTORE PUSH1 0x4 PUSH1 0x20 MSTORE PUSH1 0x40 DUP2 KECCAK256 DUP1 SLOAD PUSH1 0x1 PUSH1 0x1 PUSH1 0xA0 SHL SUB NOT AND SWAP1 SSTORE DUP9 DUP2 MSTORE PUSH1 0x3 DUP3 MSTORE DUP10 SWAP1 KECCAK256 DUP1 SLOAD PUSH0 NOT ADD SWAP1 SSTORE PUSH2 0x1521 JUMP JUMPDEST SWAP2 SWAP3 POP SWAP1 DUP1 PUSH2 0x1622 JUMPI JUMPDEST ISZERO PUSH2 0x15E9 JUMPI SWAP1 DUP5 SWAP2 PUSH0 PUSH2 0x1517 JUMP JUMPDEST DUP7 DUP6 DUP8 PUSH2 0x1606 JUMPI PUSH1 0x24 SWAP2 MLOAD SWAP1 PUSH4 0x7E273289 PUSH1 0xE0 SHL DUP3 MSTORE PUSH1 0x4 DUP3 ADD MSTORE REVERT JUMPDEST PUSH1 0x44 SWAP2 MLOAD SWAP1 PUSH4 0x177E802F PUSH1 0xE0 SHL DUP3 MSTORE CALLER PUSH1 0x4 DUP4 ADD MSTORE PUSH1 0x24 DUP3 ADD MSTORE REVERT JUMPDEST POP CALLER DUP7 EQ DUP1 ISZERO PUSH2 0x1647 JUMPI JUMPDEST DUP1 PUSH2 0x15DB JUMPI POP DUP5 PUSH0 MSTORE PUSH1 0x4 DUP2 MSTORE CALLER DUP5 DUP9 PUSH0 KECCAK256 SLOAD AND EQ PUSH2 0x15DB JUMP JUMPDEST POP DUP6 PUSH0 MSTORE PUSH1 0x5 DUP2 MSTORE DUP7 PUSH0 KECCAK256 CALLER PUSH0 MSTORE DUP2 MSTORE PUSH1 0xFF DUP8 PUSH0 KECCAK256 SLOAD AND PUSH2 0x162D JUMP JUMPDEST PUSH1 0x40 MLOAD PUSH4 0x32505749 PUSH1 0xE1 SHL DUP2 MSTORE PUSH0 PUSH1 0x4 DUP3 ADD MSTORE PUSH1 0x24 SWAP1 REVERT JUMPDEST PUSH1 0xB SLOAD PUSH0 SWAP3 SWAP2 PUSH2 0x168A DUP3 PUSH2 0x14AD JUMP JUMPDEST SWAP2 PUSH1 0x1 SWAP1 DUP2 DUP2 AND SWAP1 DUP2 ISZERO PUSH2 0x16F4 JUMPI POP PUSH1 0x1 EQ PUSH2 0x16A5 JUMPI POP POP POP JUMP JUMPDEST SWAP1 SWAP2 SWAP3 SWAP4 POP PUSH1 0xB PUSH0 MSTORE PUSH32 0x175B7A638427703F0DBE7BB9BBF987A2551717B34E79F33B5B1008D1FA01DB9 SWAP1 PUSH0 SWAP2 JUMPDEST DUP5 DUP4 LT PUSH2 0x16E1 JUMPI POP POP POP ADD SWAP1 JUMP JUMPDEST DUP2 DUP2 PUSH1 0x20 SWAP3 SLOAD DUP6 DUP8 ADD MSTORE ADD SWAP3 ADD SWAP2 PUSH2 0x16D3 JUMP JUMPDEST PUSH1 0xFF NOT AND DUP4 MSTORE POP POP DUP2 ISZERO ISZERO SWAP1 SWAP2 MUL ADD SWAP2 POP JUMP JUMPDEST PUSH1 0xA SLOAD PUSH0 SWAP3 SWAP2 PUSH2 0x1716 DUP3 PUSH2 0x14AD JUMP JUMPDEST SWAP2 PUSH1 0x1 SWAP1 DUP2 DUP2 AND SWAP1 DUP2 ISZERO PUSH2 0x16F4 JUMPI POP PUSH1 0x1 EQ PUSH2 0x1731 JUMPI POP POP POP JUMP JUMPDEST SWAP1 SWAP2 SWAP3 SWAP4 POP PUSH1 0xA PUSH0 MSTORE PUSH32 0xC65A7BB8D6351C1CF70C95A316CC6A92839C986682D98BC35F958F4883F9D2A8 SWAP1 PUSH0 SWAP2 JUMPDEST DUP5 DUP4 LT PUSH2 0x176D JUMPI POP POP POP ADD SWAP1 JUMP JUMPDEST DUP2 DUP2 PUSH1 0x20 SWAP3 SLOAD DUP6 DUP8 ADD MSTORE ADD SWAP3 ADD SWAP2 PUSH2 0x175F JUMP JUMPDEST PUSH0 DUP2 DUP2 MSTORE PUSH1 0x2 PUSH1 0x20 MSTORE PUSH1 0x40 SWAP1 KECCAK256 SLOAD PUSH1 0x1 PUSH1 0x1 PUSH1 0xA0 SHL SUB AND SWAP1 DUP2 ISZERO PUSH2 0x17A2 JUMPI POP SWAP1 JUMP JUMPDEST PUSH1 0x24 SWAP1 PUSH1 0x40 MLOAD SWAP1 PUSH4 0x7E273289 PUSH1 0xE0 SHL DUP3 MSTORE PUSH1 0x4 DUP3 ADD MSTORE REVERT JUMPDEST PUSH1 0x6 SLOAD PUSH1 0x1 PUSH1 0x1 PUSH1 0xA0 SHL SUB AND CALLER SUB PUSH2 0x17CE JUMPI JUMP JUMPDEST PUSH1 0x40 MLOAD PUSH4 0x118CDAA7 PUSH1 0xE0 SHL DUP2 MSTORE CALLER PUSH1 0x4 DUP3 ADD MSTORE PUSH1 0x24 SWAP1 REVERT JUMPDEST SWAP3 SWAP4 SWAP1 SWAP2 SWAP4 DUP5 EXTCODESIZE PUSH2 0x17F9 JUMPI JUMPDEST POP POP POP POP POP JUMP JUMPDEST PUSH1 0x40 MLOAD PUSH4 0xA85BD01 PUSH1 0xE1 SHL DUP1 DUP3 MSTORE PUSH1 0x1 PUSH1 0x1 PUSH1 0xA0 SHL SUB SWAP6 DUP7 AND PUSH1 0x4 DUP4 ADD MSTORE SWAP4 DUP6 AND PUSH1 0x24 DUP3 ADD MSTORE PUSH1 0x44 DUP2 ADD SWAP2 SWAP1 SWAP2 MSTORE PUSH1 0x80 PUSH1 0x64 DUP3 ADD MSTORE PUSH1 0x20 SWAP6 SWAP5 SWAP1 SWAP4 AND SWAP4 SWAP3 SWAP1 DUP6 SWAP1 DUP3 SWAP1 DUP2 SWAP1 PUSH2 0x184C SWAP1 PUSH1 0x84 DUP4 ADD SWAP1 PUSH2 0x13B9 JUMP JUMPDEST SUB DUP2 PUSH0 DUP9 GAS CALL PUSH0 SWAP2 DUP2 PUSH2 0x18F0 JUMPI JUMPDEST POP PUSH2 0x18B9 JUMPI POP POP POP RETURNDATASIZE PUSH0 EQ PUSH2 0x18B1 JUMPI RETURNDATASIZE SWAP2 PUSH2 0x1874 DUP4 PUSH2 0x1491 JUMP JUMPDEST SWAP3 PUSH2 0x1882 PUSH1 0x40 MLOAD SWAP5 DUP6 PUSH2 0x146F JUMP JUMPDEST DUP4 MSTORE RETURNDATASIZE PUSH0 DUP3 DUP6 ADD RETURNDATACOPY JUMPDEST DUP3 MLOAD SWAP3 DUP4 PUSH2 0x18AC JUMPI PUSH1 0x40 MLOAD PUSH4 0x32505749 PUSH1 0xE1 SHL DUP2 MSTORE PUSH1 0x4 DUP2 ADD DUP5 SWAP1 MSTORE PUSH1 0x24 SWAP1 REVERT JUMPDEST ADD SWAP1 POP REVERT JUMPDEST PUSH1 0x60 SWAP2 PUSH2 0x188B JUMP JUMPDEST SWAP2 SWAP4 POP PUSH1 0x1 PUSH1 0x1 PUSH1 0xE0 SHL SUB NOT SWAP1 SWAP2 AND SUB PUSH2 0x18D8 JUMPI POP PUSH0 DUP1 DUP1 DUP1 DUP1 PUSH2 0x17F2 JUMP JUMPDEST PUSH1 0x24 SWAP1 PUSH1 0x40 MLOAD SWAP1 PUSH4 0x32505749 PUSH1 0xE1 SHL DUP3 MSTORE PUSH1 0x4 DUP3 ADD MSTORE REVERT JUMPDEST SWAP1 SWAP2 POP DUP6 DUP2 DUP2 RETURNDATASIZE DUP4 GT PUSH2 0x1929 JUMPI JUMPDEST PUSH2 0x1908 DUP2 DUP4 PUSH2 0x146F JUMP JUMPDEST DUP2 ADD SUB SLT PUSH2 0x184 JUMPI MLOAD PUSH1 0x1 PUSH1 0x1 PUSH1 0xE0 SHL SUB NOT DUP2 AND DUP2 SUB PUSH2 0x184 JUMPI SWAP1 PUSH0 PUSH2 0x185A JUMP JUMPDEST POP RETURNDATASIZE PUSH2 0x18FE JUMP JUMPDEST DUP1 PUSH0 SWAP2 PUSH27 0x184F03E93FF9F4DAA797ED6E38ED64BF6A1F010000000000000000 DUP1 DUP3 LT ISZERO PUSH2 0x1A89 JUMPI JUMPDEST POP PUSH14 0x4EE2D6D415B85ACEF8100000000 DUP1 DUP4 LT ISZERO PUSH2 0x1A7A JUMPI JUMPDEST POP PUSH7 0x2386F26FC10000 DUP1 DUP4 LT ISZERO PUSH2 0x1A6B JUMPI JUMPDEST POP PUSH4 0x5F5E100 DUP1 DUP4 LT ISZERO PUSH2 0x1A5C JUMPI JUMPDEST POP PUSH2 0x2710 DUP1 DUP4 LT ISZERO PUSH2 0x1A4D JUMPI JUMPDEST POP PUSH1 0x64 DUP3 LT ISZERO PUSH2 0x1A3D JUMPI JUMPDEST PUSH1 0xA DUP1 SWAP3 LT ISZERO PUSH2 0x1A33 JUMPI JUMPDEST PUSH1 0x1 SWAP1 DUP2 PUSH1 0x21 PUSH1 0x1 DUP7 ADD SWAP6 PUSH2 0x19C9 DUP8 PUSH2 0x1491 JUMP JUMPDEST SWAP7 PUSH2 0x19D7 PUSH1 0x40 MLOAD SWAP9 DUP10 PUSH2 0x146F JUMP JUMPDEST DUP1 DUP9 MSTORE PUSH2 0x19E6 PUSH1 0x1F NOT SWAP2 PUSH2 0x1491 JUMP JUMPDEST ADD CALLDATASIZE PUSH1 0x20 DUP10 ADD CALLDATACOPY DUP7 ADD ADD SWAP1 JUMPDEST PUSH2 0x19FE JUMPI JUMPDEST POP POP POP POP SWAP1 JUMP JUMPDEST PUSH0 NOT ADD SWAP1 DUP4 SWAP1 PUSH16 0x181899199A1A9B1B9C1CB0B131B232B3 PUSH1 0x81 SHL DUP3 DUP3 MOD BYTE DUP4 MSTORE8 DIV SWAP2 DUP3 ISZERO PUSH2 0x1A2E JUMPI SWAP2 SWAP1 DUP3 PUSH2 0x19F2 JUMP JUMPDEST PUSH2 0x19F7 JUMP JUMPDEST SWAP2 PUSH1 0x1 ADD SWAP2 PUSH2 0x19B5 JUMP JUMPDEST SWAP2 SWAP1 PUSH1 0x64 PUSH1 0x2 SWAP2 DIV SWAP2 ADD SWAP2 PUSH2 0x19AA JUMP JUMPDEST PUSH1 0x4 SWAP2 SWAP4 SWAP3 DIV SWAP2 ADD SWAP2 PUSH0 PUSH2 0x199F JUMP JUMPDEST PUSH1 0x8 SWAP2 SWAP4 SWAP3 DIV SWAP2 ADD SWAP2 PUSH0 PUSH2 0x1992 JUMP JUMPDEST PUSH1 0x10 SWAP2 SWAP4 SWAP3 DIV SWAP2 ADD SWAP2 PUSH0 PUSH2 0x1983 JUMP JUMPDEST PUSH1 0x20 SWAP2 SWAP4 SWAP3 DIV SWAP2 ADD SWAP2 PUSH0 PUSH2 0x1971 JUMP JUMPDEST PUSH1 0x40 SWAP4 POP DUP2 DIV SWAP2 POP PUSH0 PUSH2 0x1958 JUMP JUMPDEST DUP1 MLOAD ISZERO PUSH2 0x1BD7 JUMPI DUP1 MLOAD SWAP2 PUSH1 0x2 DUP1 DUP5 ADD DUP1 SWAP5 GT PUSH2 0x1BC3 JUMPI PUSH1 0x3 SWAP4 DUP5 SWAP1 DIV PUSH1 0x2 DUP2 SWAP1 SHL SWAP2 SWAP1 PUSH1 0x1 PUSH1 0x1 PUSH1 0xFE SHL SUB DUP2 AND SUB PUSH2 0x1BC3 JUMPI SWAP4 PUSH1 0x40 MLOAD SWAP4 PUSH32 0x4142434445464748494A4B4C4D4E4F505152535455565758595A616263646566 PUSH1 0x1F MSTORE PUSH1 0x3F SWAP2 PUSH32 0x6768696A6B6C6D6E6F707172737475767778797A303132333435363738392B2F PUSH1 0x3F MSTORE PUSH1 0x20 DUP7 ADD SWAP3 DUP3 SWAP2 DUP4 MLOAD DUP5 ADD SWAP2 PUSH1 0x20 DUP4 ADD SWAP10 DUP11 MLOAD SWAP5 PUSH0 DUP13 MSTORE JUMPDEST DUP5 DUP2 LT PUSH2 0x1B87 JUMPI POP POP POP POP POP SWAP1 PUSH1 0x3 SWAP2 PUSH1 0x20 SWAP6 SWAP7 SWAP8 MSTORE MLOAD MOD DUP1 PUSH1 0x1 EQ PUSH2 0x1B72 JUMPI PUSH1 0x2 EQ PUSH2 0x1B65 JUMPI JUMPDEST POP DUP1 DUP5 MSTORE DUP4 ADD ADD PUSH1 0x40 MSTORE JUMP JUMPDEST PUSH1 0x3D SWAP1 PUSH0 NOT ADD MSTORE8 PUSH0 PUSH2 0x1B59 JUMP JUMPDEST POP PUSH1 0x3D SWAP1 DUP2 PUSH0 NOT DUP3 ADD MSTORE8 PUSH1 0x1 NOT ADD MSTORE8 PUSH0 PUSH2 0x1B59 JUMP JUMPDEST DUP4 PUSH1 0x4 SWAP2 SWAP13 SWAP6 SWAP9 SWAP13 ADD SWAP12 DUP4 DUP14 MLOAD DUP2 DUP2 PUSH1 0x12 SHR AND MLOAD DUP4 MSTORE8 DUP2 DUP2 PUSH1 0xC SHR AND MLOAD PUSH1 0x1 DUP5 ADD MSTORE8 DUP2 DUP2 PUSH1 0x6 SHR AND MLOAD DUP6 DUP5 ADD MSTORE8 AND MLOAD DUP6 DUP3 ADD MSTORE8 ADD SWAP7 SWAP4 SWAP11 PUSH2 0x1B31 JUMP JUMPDEST PUSH4 0x4E487B71 PUSH1 0xE0 SHL PUSH0 MSTORE PUSH1 0x11 PUSH1 0x4 MSTORE PUSH1 0x24 PUSH0 REVERT JUMPDEST POP PUSH1 0x40 MLOAD PUSH2 0x1BE4 DUP2 PUSH2 0x143F JUMP JUMPDEST PUSH0 DUP2 MSTORE SWAP1 JUMP INVALID LOG2 PUSH5 0x6970667358 0x22 SLT KECCAK256 JUMPI STATICCALL 0x4B JUMPI 0xB7 ADDMOD DUP16 0xE1 0x23 XOR BYTE 0xFC AND 0x25 DELEGATECALL BYTE CALLCODE DUP15 PUSH1 0x24 0xBA PUSH30 0x87EB084621D852C9DA0664736F6C63430008180033000000000000000000 "},"methodIdentifiers":{"approve(address,uint256)":"095ea7b3","balanceOf(address)":"70a08231","getApproved(uint256)":"081812fc","hasMinted(address)":"38e21cce","isApprovedForAll(address,address)":"e985e9c5","mint()":"1249c58b","name()":"06fdde03","owner()":"8da5cb5b","ownerOf(uint256)":"6352211e","renounceOwnership()":"715018a6","safeTransferFrom(address,address,uint256)":"42842e0e","safeTransferFrom(address,address,uint256,bytes)":"b88d4fde","setApprovalForAll(address,bool)":"a22cb465","supportsInterface(bytes4)":"01ffc9a7","symbol()":"95d89b41","tokenMinter(uint256)":"7c57d947","tokenURI(uint256)":"c87b56dd","totalSupply()":"18160ddd","transferFrom(address,address,uint256)":"23b872dd","transferOwnership(address)":"f2fde38b"}}}}}