{
  "_format": "hh3-artifact-1",
  "contractName": "BronzeTraderNFT",
  "sourceName": "contracts/BronzeTraderNFT.sol",
  "abi": [
    {
      "inputs": [
        {
          "internalType": "address",
          "name": "initialOwner",
          "type": "address"
        }
      ],
      "stateMutability": "nonpayable",
      "type": "constructor"
    },
    {
      "inputs": [
        {
          "internalType": "address",
          "name": "sender",
          "type": "address"
        },
        {
          "internalType": "uint256",
          "name": "tokenId",
          "type": "uint256"
        },
        {
          "internalType": "address",
          "name": "owner",
          "type": "address"
        }
      ],
      "name": "ERC721IncorrectOwner",
      "type": "error"
    },
    {
      "inputs": [
        {
          "internalType": "address",
          "name": "operator",
          "type": "address"
        },
        {
          "internalType": "uint256",
          "name": "tokenId",
          "type": "uint256"
        }
      ],
      "name": "ERC721InsufficientApproval",
      "type": "error"
    },
    {
      "inputs": [
        {
          "internalType": "address",
          "name": "approver",
          "type": "address"
        }
      ],
      "name": "ERC721InvalidApprover",
      "type": "error"
    },
    {
      "inputs": [
        {
          "internalType": "address",
          "name": "operator",
          "type": "address"
        }
      ],
      "name": "ERC721InvalidOperator",
      "type": "error"
    },
    {
      "inputs": [
        {
          "internalType": "address",
          "name": "owner",
          "type": "address"
        }
      ],
      "name": "ERC721InvalidOwner",
      "type": "error"
    },
    {
      "inputs": [
        {
          "internalType": "address",
          "name": "receiver",
          "type": "address"
        }
      ],
      "name": "ERC721InvalidReceiver",
      "type": "error"
    },
    {
      "inputs": [
        {
          "internalType": "address",
          "name": "sender",
          "type": "address"
        }
      ],
      "name": "ERC721InvalidSender",
      "type": "error"
    },
    {
      "inputs": [
        {
          "internalType": "uint256",
          "name": "tokenId",
          "type": "uint256"
        }
      ],
      "name": "ERC721NonexistentToken",
      "type": "error"
    },
    {
      "inputs": [
        {
          "internalType": "address",
          "name": "owner",
          "type": "address"
        }
      ],
      "name": "OwnableInvalidOwner",
      "type": "error"
    },
    {
      "inputs": [
        {
          "internalType": "address",
          "name": "account",
          "type": "address"
        }
      ],
      "name": "OwnableUnauthorizedAccount",
      "type": "error"
    },
    {
      "anonymous": false,
      "inputs": [
        {
          "indexed": true,
          "internalType": "address",
          "name": "owner",
          "type": "address"
        },
        {
          "indexed": true,
          "internalType": "address",
          "name": "approved",
          "type": "address"
        },
        {
          "indexed": true,
          "internalType": "uint256",
          "name": "tokenId",
          "type": "uint256"
        }
      ],
      "name": "Approval",
      "type": "event"
    },
    {
      "anonymous": false,
      "inputs": [
        {
          "indexed": true,
          "internalType": "address",
          "name": "owner",
          "type": "address"
        },
        {
          "indexed": true,
          "internalType": "address",
          "name": "operator",
          "type": "address"
        },
        {
          "indexed": false,
          "internalType": "bool",
          "name": "approved",
          "type": "bool"
        }
      ],
      "name": "ApprovalForAll",
      "type": "event"
    },
    {
      "anonymous": false,
      "inputs": [
        {
          "indexed": true,
          "internalType": "address",
          "name": "minter",
          "type": "address"
        },
        {
          "indexed": true,
          "internalType": "uint256",
          "name": "tokenId",
          "type": "uint256"
        }
      ],
      "name": "Minted",
      "type": "event"
    },
    {
      "anonymous": false,
      "inputs": [
        {
          "indexed": true,
          "internalType": "address",
          "name": "previousOwner",
          "type": "address"
        },
        {
          "indexed": true,
          "internalType": "address",
          "name": "newOwner",
          "type": "address"
        }
      ],
      "name": "OwnershipTransferred",
      "type": "event"
    },
    {
      "anonymous": false,
      "inputs": [
        {
          "indexed": true,
          "internalType": "address",
          "name": "from",
          "type": "address"
        },
        {
          "indexed": true,
          "internalType": "address",
          "name": "to",
          "type": "address"
        },
        {
          "indexed": true,
          "internalType": "uint256",
          "name": "tokenId",
          "type": "uint256"
        }
      ],
      "name": "Transfer",
      "type": "event"
    },
    {
      "inputs": [
        {
          "internalType": "address",
          "name": "to",
          "type": "address"
        },
        {
          "internalType": "uint256",
          "name": "tokenId",
          "type": "uint256"
        }
      ],
      "name": "approve",
      "outputs": [],
      "stateMutability": "nonpayable",
      "type": "function"
    },
    {
      "inputs": [
        {
          "internalType": "address",
          "name": "owner",
          "type": "address"
        }
      ],
      "name": "balanceOf",
      "outputs": [
        {
          "internalType": "uint256",
          "name": "",
          "type": "uint256"
        }
      ],
      "stateMutability": "view",
      "type": "function"
    },
    {
      "inputs": [
        {
          "internalType": "uint256",
          "name": "tokenId",
          "type": "uint256"
        }
      ],
      "name": "getApproved",
      "outputs": [
        {
          "internalType": "address",
          "name": "",
          "type": "address"
        }
      ],
      "stateMutability": "view",
      "type": "function"
    },
    {
      "inputs": [
        {
          "internalType": "address",
          "name": "",
          "type": "address"
        }
      ],
      "name": "hasMinted",
      "outputs": [
        {
          "internalType": "bool",
          "name": "",
          "type": "bool"
        }
      ],
      "stateMutability": "view",
      "type": "function"
    },
    {
      "inputs": [
        {
          "internalType": "address",
          "name": "owner",
          "type": "address"
        },
        {
          "internalType": "address",
          "name": "operator",
          "type": "address"
        }
      ],
      "name": "isApprovedForAll",
      "outputs": [
        {
          "internalType": "bool",
          "name": "",
          "type": "bool"
        }
      ],
      "stateMutability": "view",
      "type": "function"
    },
    {
      "inputs": [],
      "name": "mint",
      "outputs": [],
      "stateMutability": "nonpayable",
      "type": "function"
    },
    {
      "inputs": [],
      "name": "name",
      "outputs": [
        {
          "internalType": "string",
          "name": "",
          "type": "string"
        }
      ],
      "stateMutability": "view",
      "type": "function"
    },
    {
      "inputs": [],
      "name": "owner",
      "outputs": [
        {
          "internalType": "address",
          "name": "",
          "type": "address"
        }
      ],
      "stateMutability": "view",
      "type": "function"
    },
    {
      "inputs": [
        {
          "internalType": "uint256",
          "name": "tokenId",
          "type": "uint256"
        }
      ],
      "name": "ownerOf",
      "outputs": [
        {
          "internalType": "address",
          "name": "",
          "type": "address"
        }
      ],
      "stateMutability": "view",
      "type": "function"
    },
    {
      "inputs": [],
      "name": "renounceOwnership",
      "outputs": [],
      "stateMutability": "nonpayable",
      "type": "function"
    },
    {
      "inputs": [
        {
          "internalType": "address",
          "name": "from",
          "type": "address"
        },
        {
          "internalType": "address",
          "name": "to",
          "type": "address"
        },
        {
          "internalType": "uint256",
          "name": "tokenId",
          "type": "uint256"
        }
      ],
      "name": "safeTransferFrom",
      "outputs": [],
      "stateMutability": "nonpayable",
      "type": "function"
    },
    {
      "inputs": [
        {
          "internalType": "address",
          "name": "from",
          "type": "address"
        },
        {
          "internalType": "address",
          "name": "to",
          "type": "address"
        },
        {
          "internalType": "uint256",
          "name": "tokenId",
          "type": "uint256"
        },
        {
          "internalType": "bytes",
          "name": "data",
          "type": "bytes"
        }
      ],
      "name": "safeTransferFrom",
      "outputs": [],
      "stateMutability": "nonpayable",
      "type": "function"
    },
    {
      "inputs": [
        {
          "internalType": "address",
          "name": "operator",
          "type": "address"
        },
        {
          "internalType": "bool",
          "name": "approved",
          "type": "bool"
        }
      ],
      "name": "setApprovalForAll",
      "outputs": [],
      "stateMutability": "nonpayable",
      "type": "function"
    },
    {
      "inputs": [
        {
          "internalType": "bytes4",
          "name": "interfaceId",
          "type": "bytes4"
        }
      ],
      "name": "supportsInterface",
      "outputs": [
        {
          "internalType": "bool",
          "name": "",
          "type": "bool"
        }
      ],
      "stateMutability": "view",
      "type": "function"
    },
    {
      "inputs": [],
      "name": "symbol",
      "outputs": [
        {
          "internalType": "string",
          "name": "",
          "type": "string"
        }
      ],
      "stateMutability": "view",
      "type": "function"
    },
    {
      "inputs": [
        {
          "internalType": "uint256",
          "name": "",
          "type": "uint256"
        }
      ],
      "name": "tokenMinter",
      "outputs": [
        {
          "internalType": "address",
          "name": "",
          "type": "address"
        }
      ],
      "stateMutability": "view",
      "type": "function"
    },
    {
      "inputs": [
        {
          "internalType": "uint256",
          "name": "tokenId",
          "type": "uint256"
        }
      ],
      "name": "tokenURI",
      "outputs": [
        {
          "internalType": "string",
          "name": "",
          "type": "string"
        }
      ],
      "stateMutability": "view",
      "type": "function"
    },
    {
      "inputs": [],
      "name": "totalSupply",
      "outputs": [
        {
          "internalType": "uint256",
          "name": "",
          "type": "uint256"
        }
      ],
      "stateMutability": "view",
      "type": "function"
    },
    {
      "inputs": [
        {
          "internalType": "address",
          "name": "from",
          "type": "address"
        },
        {
          "internalType": "address",
          "name": "to",
          "type": "address"
        },
        {
          "internalType": "uint256",
          "name": "tokenId",
          "type": "uint256"
        }
      ],
      "name": "transferFrom",
      "outputs": [],
      "stateMutability": "nonpayable",
      "type": "function"
    },
    {
      "inputs": [
        {
          "internalType": "address",
          "name": "newOwner",
          "type": "address"
        }
      ],
      "name": "transferOwnership",
      "outputs": [],
      "stateMutability": "nonpayable",
      "type": "function"
    }
  ],
  "bytecode": "0x6080346200049e57601f90601f196001600160401b0362002136388190038581018416850183811186821017620003ea578592829160405283396020948591810103126200049e57516001600160a01b0380821694909290918590036200049e576200006a620004a2565b93601585527f426173654167672042726f6e7a65205472616465720000000000000000000000838601526200009e620004a2565b94600b86526a424147472d42524f4e5a4560a81b84870152805190838211620003ea578190620000cf5f54620004c2565b8a81116200046e575b5085908a83116001146200040a575f92620003fe575b50508160011b915f199060031b1c1916175f555b8451918211620003ea5781906001956200011d8754620004c2565b898111620003af575b5084918984116001146200034e57505f9262000342575b50505f19600383901b1c191690841b1783555b83156200032a57602160f81b946002947f6561636865642035303020706f696e74732e204b656570207377617070696e67936006548260018060a01b0319821617600655167f8be0079c531659141344cd1fd0a4f28419497f9722a3daafe3b4186f6b6457e05f80a3620001c6600a54620004c2565b81811162000308575b507f42726f6e7a65205472616465720000000000000000000000000000000000001a600a55600b546200020290620004c2565b818111620002e6575b50600c6531b21bb3199960d11b01600b55600c546200022a90620004c2565b818111620002c4575b50600863f09fa58960e01b01600c55600d546200025090620004c2565b8181116200029f575b50506083600d55600d5f525f20917f4177617264656420746f204261736541676720747261646572732077686f207283558201550155604051611c209081620005168239f35b6003620002bc92600d5f52845f20920160051c82019101620004fd565b5f8062000259565b620002df90600c5f5282845f20910160051c810190620004fd565b5f62000233565b6200030190600b5f5282845f20910160051c810190620004fd565b5f6200020b565b6200032390600a5f5282845f20910160051c810190620004fd565b5f620001cf565b604051631e4fbdf760e01b81525f6004820152602490fd5b015190505f806200013d565b87949291921691845f52855f20925f5b878282106200039857505084116200037f575b505050811b01835562000150565b01515f1960f88460031b161c191690555f808062000371565b8385015186558a979095019493840193016200035e565b620003d990885f52865f208b80870160051c820192898810620003e0575b0160051c0190620004fd565b5f62000126565b92508192620003cd565b634e487b7160e01b5f52604160045260245ffd5b015190505f80620000ee565b5f808052878120938616905b88828210620004575750509084600195949392106200043e575b505050811b015f5562000102565b01515f1960f88460031b161c191690555f808062000430565b600185968293968601518155019501930162000416565b62000497905f8052875f208c80860160051c8201928a8710620003e0570160051c0190620004fd565b5f620000d8565b5f80fd5b60408051919082016001600160401b03811183821017620003ea57604052565b90600182811c92168015620004f2575b6020831014620004de57565b634e487b7160e01b5f52602260045260245ffd5b91607f1691620004d2565b81811062000509575050565b5f8155600101620004fd56fe608060409080825260049081361015610016575f80fd5b5f3560e01c90816301ffc9a71461132e5750806306fdde0314611281578063081812fc14611248578063095ea7b31461116c5780631249c58b14610e8d57806318160ddd14610e6f57806323b872dd14610e5857806338e21cce14610e1c57806342842e0e14610dee5780636352211e14610dbe57806370a0823114610d69578063715018a614610d0e5780637c57d94714610cde5780638da5cb5b14610cb657806395d89b4114610be2578063a22cb46514610b2a578063b88d4fde14610a97578063c87b56dd146101d6578063e985e9c5146101885763f2fde38b146100fc575f80fd5b34610184576020366003190112610184576101156113de565b9061011e6117ba565b6001600160a01b0391821692831561016e575050600654826001600160601b0360a01b821617600655167f8be0079c531659141344cd1fd0a4f28419497f9722a3daafe3b4186f6b6457e05f80a3005b905f6024925191631e4fbdf760e01b8352820152fd5b5f80fd5b82346101845780600319360112610184576020906101a46113de565b6101ac6113f4565b9060018060a01b038091165f5260058452825f2091165f52825260ff815f20541690519015158152f35b50346101845760209081600319360112610184578035906101f682611780565b5061020082611930565b908451927f3c73766720786d6c6e733d22687474703a2f2f7777772e77332e6f72672f3230858501527f30302f737667222076696577426f783d223020302034303020343030223e000086850152651e3232b3399f60d11b605e8501527f3c6c696e6561724772616469656e742069643d226267222078313d223025222060648501527f79313d223025222078323d2231303025222079323d2231303025223e000000006084850152837f3c73746f70206f66667365743d22302522207374796c653d2273746f702d636f8060a08301526d3637b91d119832183218b091179f60911b60c08301527f3c73746f70206f66667365743d223130302522207374796c653d2273746f702d948560ce8401526f31b7b637b91d1198b098b0999a91179f60811b60ee840152701e17b634b732b0b923b930b234b2b73a1f60791b8060fe8501527f3c6c696e6561724772616469656e742069643d2274696572222078313d22302561010f8501527f222079313d223025222078323d2231303025222079323d2231303025223e000061012f85015261014d9283850152633637b91d60e11b61016d8501526103b5610171850161167b565b6211179f60e91b815260038101979097526f31b7b637b91d119bb19ab1b33191179f60811b60238801526033870152661e17b232b3399f60c91b60448701527f3c726563742077696474683d2234303022206865696768743d22343030222066604b8701527f696c6c3d2275726c2823626729222072783d223234222f3e0000000000000000606b8701527f3c7265637420783d2232302220793d223230222077696474683d22333630222060838701527f6865696768743d22333630222066696c6c3d226e6f6e6522207374726f6b653d60a38701527f2275726c2823746965722922207374726f6b652d77696474683d22322220727860c3870152741e91189b111037b830b1b4ba3c9e9118171b11179f60591b60e38701527f3c7465787420783d223230302220793d223136302220666f6e742d73697a653d60f88701527f2238302220746578742d616e63686f723d226d6964646c652220646f6d696e6161011887015274373a16b130b9b2b634b7329e9136b4b2323632911f60591b610138870152600c54955f929061054c886114ad565b906001986001811690815f14610a7c5750600114610a1d575b5050506106fb60c8661e17ba32bc3a1f60c91b938481527f3c7465787420783d223230302220793d223233302220666f6e742d66616d696c600782015261062160807f793d22417269616c2c73616e732d73657269662220666f6e742d73697a653d22928360278201527f32322220666f6e742d7765696768743d22626f6c64222066696c6c3d2277686960478201527f74652220746578742d616e63686f723d226d6964646c65223e00000000000000606782015201611707565b908582527f3c7465787420783d223230302220793d223236322220666f6e742d66616d696c600783015260278201527f3133222066696c6c3d22233838383861612220746578742d616e63686f723d2260478201527f6d6964646c65223e42617365416767205472616465723c2f746578743e00000060678201527f3c7465787420783d223230302220793d223334302220666f6e742d66616d696c60848201527f793d226d6f6e6f73706163652220666f6e742d73697a653d223131222066696c60a4820152636c3d222360e01b60c48201520161167b565b7f2220746578742d616e63686f723d226d6964646c6522206f7061636974793d22815265302e37223e2360d01b8982015261073f825180938b602685019101611398565b01906026820152651e17b9bb339f60d11b602d8201520361076b6033601392601381018852018661146f565b61078661078061077a84611930565b96611a97565b92611930565b93875195683d913730b6b2911d1160b91b888801526107a760298801611707565b61202360f01b81526107c2825180938b600285019101611398565b0161088b60f21b948560028301526e113232b9b1b934b83a34b7b7111d1160891b908201525f92600d54926107f6846114ad565b93600181169081156109f05750600114610990575b505050508461092c946108b7605386610927968661098c9b99602798527f22696d616765223a22646174613a696d6167652f7376672b786d6c3b626173656002820152620d8d0b60ea1b602282015261086e8d8351938491602585019101611398565b019060258201526d2261747472696275746573223a5b60901b868201527f7b2274726169745f74797065223a2254696572222c2276616c7565223a220000603582015201611707565b62089f4b60ea1b81527f7b2274726169745f74797065223a22546f6b656e204944222c2276616c7565226003820152601d60f91b6023820152610903825180938b602485019101611398565b01607d60f81b6024820152615d7d60f01b602582015203600781018452018261146f565b611a97565b9261097d603d825180967f646174613a6170706c69636174696f6e2f6a736f6e3b6261736536342c0000008783015261096d81518092898686019101611398565b810103601d81018752018561146f565b519282849384528301906113b9565b0390f35b9091929350600d5f527fd7b6990105719101dabeb77144f2a3385c8033acd3af97e9423a695e81ad1eb5895f915b8683106109dc57505050509101601301905084846108b7605361080b565b80548684018601529101908a9083016109be565b60ff191660138581019190915285151590950290930190930193508792508691506108b79050605361080b565b9091929350600c5f527fdf6966c971051c3d54ec59162606531493a51404a002842f56009d7e5cf4a8c78a895f925b858410610a6257505050500101905f8080610565565b80548585018801528c985092909101918c918b9101610a4c565b60ff19168483015250811515909102010191505f8080610565565b50903461018457608036600319011261018457610ab26113de565b610aba6113f4565b604435916064359467ffffffffffffffff8611610184573660238701121561018457850135610af4610aeb82611491565b9551958661146f565b8085523660248288010111610184576020815f926024610b2899018389013786010152610b228383836114e5565b336117e6565b005b509034610184578060031936011261018457610b446113de565b9060243591821515809303610184573315610bcc576001600160a01b0316928315610bb75750335f526005602052805f20835f52602052805f2060ff1981541660ff8416179055519081527f17307eab39ab6107e8899845ad3d59bd9653f200f220920489ca2b5937696c3160203392a3005b836024925191630b61174360e31b8352820152fd5b815163a9fbf51f60e01b81525f81860152602490fd5b8234610184575f366003190112610184578051905f908260019260015493610c09856114ad565b90818452602095866001821691825f14610c94575050600114610c39575b505061098c929161097d91038561146f565b9085925060015f527fb10e2d527612073b26eecdfd717e6a320cf44b4afac2b0732d9fcbe2b7fa0cf6915f925b828410610c7c575050508201018161097d610c27565b8054848a018601528895508794909301928101610c66565b60ff19168682015292151560051b8501909201925083915061097d9050610c27565b8234610184575f3660031901126101845760065490516001600160a01b039091168152602090f35b50903461018457602036600319011261018457602091355f526009825260018060a01b03815f2054169051908152f35b34610184575f36600319011261018457610d266117ba565b600680546001600160a01b031981169091555f906001600160a01b03167f8be0079c531659141344cd1fd0a4f28419497f9722a3daafe3b4186f6b6457e08280a3005b509034610184576020366003190112610184576001600160a01b03610d8c6113de565b168015610da857602092505f5260038252805f20549051908152f35b81516322718ad960e21b81525f81850152602490fd5b50903461018457602036600319011261018457610ddd60209235611780565b90516001600160a01b039091168152f35b823461018457610b2890610e013661140a565b91925192610e0e8461143f565b5f8452610b228383836114e5565b8234610184576020366003190112610184576020906001600160a01b03610e416113de565b165f526008825260ff815f20541690519015158152f35b3461018457610b28610e693661140a565b916114e5565b8234610184575f366003190112610184576020906007549051908152f35b5034610184575f36600319011261018457335f526020906008825260ff835f20541661113a57600754925f198085146111275760018501600755335f5260088452815f20600160ff19825416179055845f5260098452815f20906001600160601b0360a01b913383825416179055825191610f078361143f565b5f83523315611111575f87815260028752849020546001600160a01b031680151592889290846110e0575b50335f5260038852855f2060018154019055825f5260028852855f2090339082541617905533907fddf252ad1be2c89b69c2b068fc378daa952ba7f163c4a11628f55a4df523b3ef5f80a46110ca57333b610fb0575b84337f30385c845b448a36257a6a1716e6ad2e1bc2cbe333cde1e69fe849ad6511adfe5f80a3005b819293949151858180610fea630a85bd0160e11b95868352338a8401525f60248401528760448401526080606484015260848301906113b9565b03815f335af15f918161108a575b50611054575050503d5f1461104c573d9261101284611491565b9361101f8351958661146f565b84523d5f8286013e5b83519384611046578251633250574960e11b81523381860152602490fd5b84925001fd5b606092611028565b9194506001600160e01b0319909116036110735750505f808080610f88565b602492505190633250574960e11b82523390820152fd5b9091508681813d83116110c3575b6110a2818361146f565b8101031261018457516001600160e01b03198116810361018457905f610ff8565b503d611098565b81516339e3563760e11b81525f81850152602490fd5b5f84815260046020526040902080546001600160a01b0319169055825f5260038952865f209081540190555f610f32565b8351633250574960e11b81525f81870152602490fd5b601183634e487b7160e01b5f525260245ffd5b915162461bcd60e51b815291820152600e60248201526d105b1c9958591e481b5a5b9d195960921b6044820152606490fd5b5090346101845780600319360112610184576111866113de565b9160243561119381611780565b33151580611235575b8061120e575b6111f8576001600160a01b039485169482918691167f8c5be1e5ebec7d5bd14f71427d1e84f3dd0314c0f7b2291e5b200ac8c7c3b9255f80a45f526020525f20906001600160601b0360a01b8254161790555f80f35b835163a9fbf51f60e01b81523381850152602490fd5b5060018060a01b0381165f526005602052835f20335f5260205260ff845f205416156111a2565b506001600160a01b03811633141561119c565b50903461018457602036600319011261018457816020923561126981611780565b505f52825260018060a01b03815f2054169051908152f35b8234610184575f366003190112610184578051905f90825f54926112a4846114ad565b808352602094600190866001821691825f14610c945750506001146112d557505061098c929161097d91038561146f565b5f80805286935091907f290decd9548b62a8d60345a988386fc84ba6bc95484008f6362f93160ef3e5635b828410611316575050508201018161097d610c27565b8054848a018601528895508794909301928101611300565b823461018457602036600319011261018457359063ffffffff60e01b8216809203610184576020916380ac58cd60e01b8114908115611387575b8115611376575b5015158152f35b6301ffc9a760e01b1490508361136f565b635b5e139f60e01b81149150611368565b5f5b8381106113a95750505f910152565b818101518382015260200161139a565b906020916113d281518092818552858086019101611398565b601f01601f1916010190565b600435906001600160a01b038216820361018457565b602435906001600160a01b038216820361018457565b6060906003190112610184576001600160a01b0390600435828116810361018457916024359081168103610184579060443590565b6020810190811067ffffffffffffffff82111761145b57604052565b634e487b7160e01b5f52604160045260245ffd5b90601f8019910116810190811067ffffffffffffffff82111761145b57604052565b67ffffffffffffffff811161145b57601f01601f191660200190565b90600182811c921680156114db575b60208310146114c757565b634e487b7160e01b5f52602260045260245ffd5b91607f16916114bc565b6001600160a01b03918216929091831561166357815f52602092600284528260409583875f20541695331515806115d1575b50600290876115a0575b825f5260038152885f2060018154019055835f5252865f20816001600160601b0360a01b825416179055857fddf252ad1be2c89b69c2b068fc378daa952ba7f163c4a11628f55a4df523b3ef5f80a4169283830361157f5750505050565b6064945051926364283d7b60e01b8452600484015260248301526044820152fd5b5f84815260046020526040812080546001600160a01b03191690558881526003825289902080545f19019055611521565b9192509080611622575b156115e9579084915f611517565b868587611606576024915190637e27328960e01b82526004820152fd5b604491519063177e802f60e01b82523360048301526024820152fd5b503386148015611647575b806115db5750845f52600481523384885f205416146115db565b50855f5260058152865f20335f52815260ff875f20541661162d565b604051633250574960e11b81525f6004820152602490fd5b600b545f929161168a826114ad565b916001908181169081156116f457506001146116a557505050565b9091929350600b5f527f0175b7a638427703f0dbe7bb9bbf987a2551717b34e79f33b5b1008d1fa01db9905f915b8483106116e1575050500190565b81816020925485870152019201916116d3565b60ff191683525050811515909102019150565b600a545f9291611716826114ad565b916001908181169081156116f4575060011461173157505050565b9091929350600a5f527fc65a7bb8d6351c1cf70c95a316cc6a92839c986682d98bc35f958f4883f9d2a8905f915b84831061176d575050500190565b818160209254858701520192019161175f565b5f818152600260205260409020546001600160a01b03169081156117a2575090565b60249060405190637e27328960e01b82526004820152fd5b6006546001600160a01b031633036117ce57565b60405163118cdaa760e01b8152336004820152602490fd5b9293909193843b6117f9575b5050505050565b604051630a85bd0160e11b8082526001600160a01b03958616600483015293851660248201526044810191909152608060648201526020959490931693929085908290819061184c9060848301906113b9565b03815f885af15f91816118f0575b506118b9575050503d5f146118b1573d9161187483611491565b92611882604051948561146f565b83523d5f8285013e5b825192836118ac57604051633250574960e11b815260048101849052602490fd5b019050fd5b60609161188b565b9193506001600160e01b0319909116036118d857505f808080806117f2565b60249060405190633250574960e11b82526004820152fd5b9091508581813d8311611929575b611908818361146f565b8101031261018457516001600160e01b03198116810361018457905f61185a565b503d6118fe565b805f917a184f03e93ff9f4daa797ed6e38ed64bf6a1f01000000000000000080821015611a89575b506d04ee2d6d415b85acef810000000080831015611a7a575b50662386f26fc1000080831015611a6b575b506305f5e10080831015611a5c575b5061271080831015611a4d575b506064821015611a3d575b600a80921015611a33575b60019081602160018601956119c987611491565b966119d7604051988961146f565b8088526119e6601f1991611491565b01366020890137860101905b6119fe575b5050505090565b5f19019083906f181899199a1a9b1b9c1cb0b131b232b360811b8282061a835304918215611a2e579190826119f2565b6119f7565b91600101916119b5565b91906064600291049101916119aa565b6004919392049101915f61199f565b6008919392049101915f611992565b6010919392049101915f611983565b6020919392049101915f611971565b60409350810491505f611958565b805115611bd7578051916002808401809411611bc357600393849004600281901b91906001600160fe1b03811603611bc35793604051937f4142434445464748494a4b4c4d4e4f505152535455565758595a616263646566601f52603f917f6768696a6b6c6d6e6f707172737475767778797a303132333435363738392b2f603f5260208601928291835184019160208301998a51945f8c525b848110611b8757505050505090600391602095969752510680600114611b7257600214611b65575b50808452830101604052565b603d905f1901535f611b59565b50603d90815f1982015360011901535f611b59565b836004919c95989c019b838d51818160121c165183538181600c1c16516001840153818160061c1651858401531651858201530196939a611b31565b634e487b7160e01b5f52601160045260245ffd5b50604051611be48161143f565b5f81529056fea264697066735822122029159b735408f8e841cbfe4a9e25e119f0ce70c64453e83efe0f9dc03ae9c7d164736f6c63430008180033",
  "linkReferences": {},
  "deployedLinkReferences": {},
  "immutableReferences": {},
  "inputSourceName": "project/contracts/BronzeTraderNFT.sol",
  "buildInfoId": "solc-0_8_24-5ec07d43aa184b4907d9ad82ce623dba99a4f6c0"
}